{
  "contractName": "Swagtag",
  "abi": [
    {
      "inputs": [],
      "stateMutability": "nonpayable",
      "type": "constructor"
    },
    {
      "anonymous": false,
      "inputs": [
        {
          "indexed": false,
          "internalType": "address",
          "name": "previousAdmin",
          "type": "address"
        },
        {
          "indexed": false,
          "internalType": "address",
          "name": "newAdmin",
          "type": "address"
        }
      ],
      "name": "AdminChanged",
      "type": "event"
    },
    {
      "anonymous": false,
      "inputs": [
        {
          "indexed": true,
          "internalType": "address",
          "name": "owner",
          "type": "address"
        },
        {
          "indexed": true,
          "internalType": "address",
          "name": "approved",
          "type": "address"
        },
        {
          "indexed": true,
          "internalType": "uint256",
          "name": "tokenId",
          "type": "uint256"
        }
      ],
      "name": "Approval",
      "type": "event"
    },
    {
      "anonymous": false,
      "inputs": [
        {
          "indexed": true,
          "internalType": "address",
          "name": "owner",
          "type": "address"
        },
        {
          "indexed": true,
          "internalType": "address",
          "name": "operator",
          "type": "address"
        },
        {
          "indexed": false,
          "internalType": "bool",
          "name": "approved",
          "type": "bool"
        }
      ],
      "name": "ApprovalForAll",
      "type": "event"
    },
    {
      "anonymous": false,
      "inputs": [
        {
          "indexed": true,
          "internalType": "address",
          "name": "beacon",
          "type": "address"
        }
      ],
      "name": "BeaconUpgraded",
      "type": "event"
    },
    {
      "anonymous": false,
      "inputs": [
        {
          "indexed": true,
          "internalType": "address",
          "name": "previousOwner",
          "type": "address"
        },
        {
          "indexed": true,
          "internalType": "address",
          "name": "newOwner",
          "type": "address"
        }
      ],
      "name": "OwnershipTransferred",
      "type": "event"
    },
    {
      "anonymous": false,
      "inputs": [
        {
          "indexed": false,
          "internalType": "uint256",
          "name": "price",
          "type": "uint256"
        },
        {
          "indexed": false,
          "internalType": "string",
          "name": "name",
          "type": "string"
        },
        {
          "indexed": false,
          "internalType": "uint256",
          "name": "item",
          "type": "uint256"
        },
        {
          "indexed": false,
          "internalType": "string",
          "name": "message",
          "type": "string"
        }
      ],
      "name": "Payment",
      "type": "event"
    },
    {
      "anonymous": false,
      "inputs": [
        {
          "indexed": false,
          "internalType": "uint256",
          "name": "ad",
          "type": "uint256"
        },
        {
          "indexed": false,
          "internalType": "bytes32",
          "name": "status",
          "type": "bytes32"
        },
        {
          "indexed": false,
          "internalType": "uint256",
          "name": "price",
          "type": "uint256"
        },
        {
          "indexed": false,
          "internalType": "string",
          "name": "name",
          "type": "string"
        },
        {
          "indexed": false,
          "internalType": "uint256",
          "name": "item",
          "type": "uint256"
        }
      ],
      "name": "TradeStatusChange",
      "type": "event"
    },
    {
      "anonymous": false,
      "inputs": [
        {
          "indexed": true,
          "internalType": "address",
          "name": "from",
          "type": "address"
        },
        {
          "indexed": true,
          "internalType": "address",
          "name": "to",
          "type": "address"
        },
        {
          "indexed": true,
          "internalType": "uint256",
          "name": "tokenId",
          "type": "uint256"
        }
      ],
      "name": "Transfer",
      "type": "event"
    },
    {
      "anonymous": false,
      "inputs": [
        {
          "indexed": true,
          "internalType": "address",
          "name": "implementation",
          "type": "address"
        }
      ],
      "name": "Upgraded",
      "type": "event"
    },
    {
      "inputs": [
        {
          "internalType": "address",
          "name": "to",
          "type": "address"
        },
        {
          "internalType": "uint256",
          "name": "tokenId",
          "type": "uint256"
        }
      ],
      "name": "approve",
      "outputs": [],
      "stateMutability": "nonpayable",
      "type": "function"
    },
    {
      "inputs": [
        {
          "internalType": "address",
          "name": "owner",
          "type": "address"
        }
      ],
      "name": "balanceOf",
      "outputs": [
        {
          "internalType": "uint256",
          "name": "",
          "type": "uint256"
        }
      ],
      "stateMutability": "view",
      "type": "function",
      "constant": true
    },
    {
      "inputs": [
        {
          "internalType": "uint256",
          "name": "tokenId",
          "type": "uint256"
        }
      ],
      "name": "getApproved",
      "outputs": [
        {
          "internalType": "address",
          "name": "",
          "type": "address"
        }
      ],
      "stateMutability": "view",
      "type": "function",
      "constant": true
    },
    {
      "inputs": [
        {
          "internalType": "address",
          "name": "owner",
          "type": "address"
        },
        {
          "internalType": "address",
          "name": "operator",
          "type": "address"
        }
      ],
      "name": "isApprovedForAll",
      "outputs": [
        {
          "internalType": "bool",
          "name": "",
          "type": "bool"
        }
      ],
      "stateMutability": "view",
      "type": "function",
      "constant": true
    },
    {
      "inputs": [],
      "name": "name",
      "outputs": [
        {
          "internalType": "string",
          "name": "",
          "type": "string"
        }
      ],
      "stateMutability": "view",
      "type": "function",
      "constant": true
    },
    {
      "inputs": [],
      "name": "owner",
      "outputs": [
        {
          "internalType": "address",
          "name": "",
          "type": "address"
        }
      ],
      "stateMutability": "view",
      "type": "function",
      "constant": true
    },
    {
      "inputs": [
        {
          "internalType": "uint256",
          "name": "tokenId",
          "type": "uint256"
        }
      ],
      "name": "ownerOf",
      "outputs": [
        {
          "internalType": "address",
          "name": "",
          "type": "address"
        }
      ],
      "stateMutability": "view",
      "type": "function",
      "constant": true
    },
    {
      "inputs": [],
      "name": "renounceOwnership",
      "outputs": [],
      "stateMutability": "nonpayable",
      "type": "function"
    },
    {
      "inputs": [
        {
          "internalType": "address",
          "name": "from",
          "type": "address"
        },
        {
          "internalType": "address",
          "name": "to",
          "type": "address"
        },
        {
          "internalType": "uint256",
          "name": "tokenId",
          "type": "uint256"
        }
      ],
      "name": "safeTransferFrom",
      "outputs": [],
      "stateMutability": "nonpayable",
      "type": "function"
    },
    {
      "inputs": [
        {
          "internalType": "address",
          "name": "from",
          "type": "address"
        },
        {
          "internalType": "address",
          "name": "to",
          "type": "address"
        },
        {
          "internalType": "uint256",
          "name": "tokenId",
          "type": "uint256"
        },
        {
          "internalType": "bytes",
          "name": "_data",
          "type": "bytes"
        }
      ],
      "name": "safeTransferFrom",
      "outputs": [],
      "stateMutability": "nonpayable",
      "type": "function"
    },
    {
      "inputs": [
        {
          "internalType": "address",
          "name": "operator",
          "type": "address"
        },
        {
          "internalType": "bool",
          "name": "approved",
          "type": "bool"
        }
      ],
      "name": "setApprovalForAll",
      "outputs": [],
      "stateMutability": "nonpayable",
      "type": "function"
    },
    {
      "inputs": [],
      "name": "symbol",
      "outputs": [
        {
          "internalType": "string",
          "name": "",
          "type": "string"
        }
      ],
      "stateMutability": "view",
      "type": "function",
      "constant": true
    },
    {
      "inputs": [
        {
          "internalType": "uint256",
          "name": "index",
          "type": "uint256"
        }
      ],
      "name": "tokenByIndex",
      "outputs": [
        {
          "internalType": "uint256",
          "name": "",
          "type": "uint256"
        }
      ],
      "stateMutability": "view",
      "type": "function",
      "constant": true
    },
    {
      "inputs": [
        {
          "internalType": "address",
          "name": "owner",
          "type": "address"
        },
        {
          "internalType": "uint256",
          "name": "index",
          "type": "uint256"
        }
      ],
      "name": "tokenOfOwnerByIndex",
      "outputs": [
        {
          "internalType": "uint256",
          "name": "",
          "type": "uint256"
        }
      ],
      "stateMutability": "view",
      "type": "function",
      "constant": true
    },
    {
      "inputs": [],
      "name": "totalSupply",
      "outputs": [
        {
          "internalType": "uint256",
          "name": "",
          "type": "uint256"
        }
      ],
      "stateMutability": "view",
      "type": "function",
      "constant": true
    },
    {
      "inputs": [
        {
          "internalType": "uint256",
          "name": "",
          "type": "uint256"
        }
      ],
      "name": "trades",
      "outputs": [
        {
          "internalType": "address payable",
          "name": "poster",
          "type": "address"
        },
        {
          "internalType": "uint256",
          "name": "item",
          "type": "uint256"
        },
        {
          "internalType": "uint256",
          "name": "price",
          "type": "uint256"
        },
        {
          "internalType": "bytes32",
          "name": "status",
          "type": "bytes32"
        }
      ],
      "stateMutability": "view",
      "type": "function",
      "constant": true
    },
    {
      "inputs": [
        {
          "internalType": "address",
          "name": "from",
          "type": "address"
        },
        {
          "internalType": "address",
          "name": "to",
          "type": "address"
        },
        {
          "internalType": "uint256",
          "name": "tokenId",
          "type": "uint256"
        }
      ],
      "name": "transferFrom",
      "outputs": [],
      "stateMutability": "nonpayable",
      "type": "function"
    },
    {
      "inputs": [
        {
          "internalType": "address",
          "name": "newOwner",
          "type": "address"
        }
      ],
      "name": "transferOwnership",
      "outputs": [],
      "stateMutability": "nonpayable",
      "type": "function"
    },
    {
      "inputs": [
        {
          "internalType": "address",
          "name": "newImplementation",
          "type": "address"
        }
      ],
      "name": "upgradeTo",
      "outputs": [],
      "stateMutability": "nonpayable",
      "type": "function"
    },
    {
      "inputs": [
        {
          "internalType": "address",
          "name": "newImplementation",
          "type": "address"
        },
        {
          "internalType": "bytes",
          "name": "data",
          "type": "bytes"
        }
      ],
      "name": "upgradeToAndCall",
      "outputs": [],
      "stateMutability": "payable",
      "type": "function",
      "payable": true
    },
    {
      "inputs": [],
      "name": "initialize",
      "outputs": [],
      "stateMutability": "nonpayable",
      "type": "function"
    },
    {
      "inputs": [
        {
          "internalType": "address",
          "name": "to",
          "type": "address"
        },
        {
          "internalType": "string",
          "name": "uri",
          "type": "string"
        }
      ],
      "name": "safeMint",
      "outputs": [],
      "stateMutability": "nonpayable",
      "type": "function"
    },
    {
      "inputs": [
        {
          "internalType": "uint256",
          "name": "_item",
          "type": "uint256"
        },
        {
          "internalType": "uint256",
          "name": "_amount",
          "type": "uint256"
        },
        {
          "internalType": "string",
          "name": "_memo",
          "type": "string"
        }
      ],
      "name": "pay",
      "outputs": [],
      "stateMutability": "payable",
      "type": "function",
      "payable": true
    },
    {
      "inputs": [
        {
          "internalType": "string",
          "name": "_name",
          "type": "string"
        },
        {
          "internalType": "uint256",
          "name": "_amount",
          "type": "uint256"
        },
        {
          "internalType": "string",
          "name": "_memo",
          "type": "string"
        }
      ],
      "name": "payName",
      "outputs": [],
      "stateMutability": "payable",
      "type": "function",
      "payable": true
    },
    {
      "inputs": [
        {
          "internalType": "string",
          "name": "_name",
          "type": "string"
        }
      ],
      "name": "mintToken",
      "outputs": [
        {
          "internalType": "uint256",
          "name": "",
          "type": "uint256"
        }
      ],
      "stateMutability": "payable",
      "type": "function",
      "payable": true
    },
    {
      "inputs": [
        {
          "internalType": "uint256",
          "name": "tokenId",
          "type": "uint256"
        }
      ],
      "name": "tokenURI",
      "outputs": [
        {
          "internalType": "string",
          "name": "",
          "type": "string"
        }
      ],
      "stateMutability": "view",
      "type": "function",
      "constant": true
    },
    {
      "inputs": [
        {
          "internalType": "bytes4",
          "name": "interfaceId",
          "type": "bytes4"
        }
      ],
      "name": "supportsInterface",
      "outputs": [
        {
          "internalType": "bool",
          "name": "",
          "type": "bool"
        }
      ],
      "stateMutability": "view",
      "type": "function",
      "constant": true
    },
    {
      "inputs": [
        {
          "internalType": "string",
          "name": "_name",
          "type": "string"
        }
      ],
      "name": "getAddress",
      "outputs": [
        {
          "internalType": "string",
          "name": "",
          "type": "string"
        }
      ],
      "stateMutability": "view",
      "type": "function",
      "constant": true
    },
    {
      "inputs": [
        {
          "internalType": "string",
          "name": "_name",
          "type": "string"
        }
      ],
      "name": "getId",
      "outputs": [
        {
          "internalType": "uint256",
          "name": "id",
          "type": "uint256"
        }
      ],
      "stateMutability": "view",
      "type": "function",
      "constant": true
    },
    {
      "inputs": [
        {
          "internalType": "uint256",
          "name": "tokenId",
          "type": "uint256"
        }
      ],
      "name": "getName",
      "outputs": [
        {
          "internalType": "string",
          "name": "",
          "type": "string"
        }
      ],
      "stateMutability": "view",
      "type": "function",
      "constant": true
    },
    {
      "inputs": [
        {
          "internalType": "string",
          "name": "_name",
          "type": "string"
        },
        {
          "internalType": "string",
          "name": "_address",
          "type": "string"
        }
      ],
      "name": "setAddress",
      "outputs": [],
      "stateMutability": "nonpayable",
      "type": "function"
    },
    {
      "inputs": [
        {
          "internalType": "uint256",
          "name": "_trade",
          "type": "uint256"
        }
      ],
      "name": "getTrade",
      "outputs": [
        {
          "internalType": "address",
          "name": "",
          "type": "address"
        },
        {
          "internalType": "uint256",
          "name": "",
          "type": "uint256"
        },
        {
          "internalType": "uint256",
          "name": "",
          "type": "uint256"
        },
        {
          "internalType": "bytes32",
          "name": "",
          "type": "bytes32"
        }
      ],
      "stateMutability": "view",
      "type": "function",
      "constant": true
    },
    {
      "inputs": [
        {
          "internalType": "uint256",
          "name": "_id",
          "type": "uint256"
        }
      ],
      "name": "getTradeForId",
      "outputs": [
        {
          "internalType": "address",
          "name": "",
          "type": "address"
        },
        {
          "internalType": "uint256",
          "name": "",
          "type": "uint256"
        },
        {
          "internalType": "uint256",
          "name": "",
          "type": "uint256"
        },
        {
          "internalType": "bytes32",
          "name": "",
          "type": "bytes32"
        }
      ],
      "stateMutability": "view",
      "type": "function",
      "constant": true
    },
    {
      "inputs": [
        {
          "internalType": "uint256",
          "name": "_item",
          "type": "uint256"
        },
        {
          "internalType": "uint256",
          "name": "_price",
          "type": "uint256"
        }
      ],
      "name": "openTrade",
      "outputs": [],
      "stateMutability": "payable",
      "type": "function",
      "payable": true
    },
    {
      "inputs": [
        {
          "internalType": "uint256",
          "name": "_trade",
          "type": "uint256"
        }
      ],
      "name": "executeTrade",
      "outputs": [],
      "stateMutability": "payable",
      "type": "function",
      "payable": true
    },
    {
      "inputs": [
        {
          "internalType": "uint256",
          "name": "_trade",
          "type": "uint256"
        }
      ],
      "name": "cancelTrade",
      "outputs": [],
      "stateMutability": "nonpayable",
      "type": "function"
    },
    {
      "inputs": [
        {
          "internalType": "uint256",
          "name": "_tokenId",
          "type": "uint256"
        }
      ],
      "name": "getNameForId",
      "outputs": [
        {
          "internalType": "string",
          "name": "",
          "type": "string"
        }
      ],
      "stateMutability": "view",
      "type": "function",
      "constant": true
    },
    {
      "inputs": [
        {
          "internalType": "uint256",
          "name": "_tokenId",
          "type": "uint256"
        }
      ],
      "name": "getAddressForId",
      "outputs": [
        {
          "internalType": "string",
          "name": "",
          "type": "string"
        }
      ],
      "stateMutability": "view",
      "type": "function",
      "constant": true
    }
  ],
  "bytecode": "0x60a0604052306080523480156200001557600080fd5b50600054610100900460ff16620000335760005460ff16156200003d565b6200003d620000e2565b620000a55760405162461bcd60e51b815260206004820152602e60248201527f496e697469616c697a61626c653a20636f6e747261637420697320616c72656160448201526d191e481a5b9a5d1a585b1a5e995960921b606482015260840160405180910390fd5b600054610100900460ff16158015620000c8576000805461ffff19166101011790555b8015620000db576000805461ff00191690555b5062000106565b6000620000fa306200010060201b62001ec51760201c565b15905090565b3b151590565b608051613ef36200013760003960008181611315015281816113ab015281816114ce01526115640152613ef36000f3fe6080604052600436106102855760003560e01c80636352211e11610153578063ab8cf592116100cb578063d204c45e1161007f578063ebd3828e11610064578063ebd3828e146107d2578063ec6b9e59146107f2578063f2fde38b1461081257600080fd5b8063d204c45e14610769578063e985e9c51461078957600080fd5b8063bee51f3b116100b0578063bee51f3b14610709578063bf40fac114610729578063c87b56dd1461074957600080fd5b8063ab8cf592146106d6578063b88d4fde146106e957600080fd5b80638129fc1c1161012257806395d89b411161010757806395d89b4114610681578063a22cb46514610696578063a22dee04146106b657600080fd5b80638129fc1c1461064e5780638da5cb5b1461066357600080fd5b80636352211e146105d95780636b8ff574146105f957806370a0823114610619578063715018a61461063957600080fd5b80631e6c598e116102015780633659cfe6116101b557806342842e0e1161019a57806342842e0e146105865780634f1ef286146105a65780634f6ccce7146105b957600080fd5b80633659cfe6146104ec5780633eb5a2151461050c57600080fd5b80632db25e05116101e65780632db25e051461044a5780632f745c59146104b957806333eba49a146104d957600080fd5b80631e6c598e146103b357806323b872dd1461042a57600080fd5b8063095ea7b3116102585780630c493fba1161023d5780630c493fba1461036e578063158744be1461038157806318160ddd1461039457600080fd5b8063095ea7b31461032e57806309ec6cc71461034e57600080fd5b806301ffc9a71461028a57806302d2838b146102bf57806306fdde03146102d4578063081812fc146102f6575b600080fd5b34801561029657600080fd5b506102aa6102a53660046136cb565b610832565b60405190151581526020015b60405180910390f35b6102d26102cd3660046136e8565b610843565b005b3480156102e057600080fd5b506102e9610a23565b6040516102b69190613759565b34801561030257600080fd5b506103166103113660046136e8565b610ab5565b6040516001600160a01b0390911681526020016102b6565b34801561033a57600080fd5b506102d2610349366004613788565b610b5b565b34801561035a57600080fd5b506102d26103693660046136e8565b610c8d565b6102d261037c3660046137b2565b610e97565b6102d261038f366004613877565b610f9f565b3480156103a057600080fd5b506099545b6040519081526020016102b6565b3480156103bf57600080fd5b506104006103ce3660046136e8565b6101976020526000908152604090208054600182015460028301546003909301546001600160a01b0390921692909184565b604080516001600160a01b03909516855260208501939093529183015260608201526080016102b6565b34801561043657600080fd5b506102d26104453660046138e4565b6110a2565b34801561045657600080fd5b506104006104653660046136e8565b60009081526101976020908152604091829020825160808101845281546001600160a01b03168082526001830154938201849052600283015494820185905260039092015460609091018190529093919291565b3480156104c557600080fd5b506103a56104d4366004613788565b611129565b6103a56104e7366004613920565b6111d1565b3480156104f857600080fd5b506102d2610507366004613955565b61130a565b34801561051857600080fd5b506104006105273660046136e8565b600090815261019560209081526040808320548352610197825291829020825160808101845281546001600160a01b03168082526001830154938201849052600283015494820185905260039092015460609091018190529093919291565b34801561059257600080fd5b506102d26105a13660046138e4565b6114a8565b6102d26105b4366004613970565b6114c3565b3480156105c557600080fd5b506103a56105d43660046136e8565b611652565b3480156105e557600080fd5b506103166105f43660046136e8565b6116f6565b34801561060557600080fd5b506102e96106143660046136e8565b611781565b34801561062557600080fd5b506103a5610634366004613955565b61178c565b34801561064557600080fd5b506102d2611826565b34801561065a57600080fd5b506102d261188c565b34801561066f57600080fd5b5060fb546001600160a01b0316610316565b34801561068d57600080fd5b506102e96119f2565b3480156106a257600080fd5b506102d26106b13660046139be565b611a01565b3480156106c257600080fd5b506102d26106d13660046139fa565b611a0c565b6102d26106e4366004613a54565b611ac7565b3480156106f557600080fd5b506102d2610704366004613a9a565b611ba4565b34801561071557600080fd5b506103a5610724366004613920565b611c32565b34801561073557600080fd5b506102e9610744366004613920565b611c5b565b34801561075557600080fd5b506102e96107643660046136e8565b611d0c565b34801561077557600080fd5b506102d2610784366004613970565b611d17565b34801561079557600080fd5b506102aa6107a4366004613b02565b6001600160a01b039182166000908152606a6020908152604080832093909416825291909152205460ff1690565b3480156107de57600080fd5b506102e96107ed3660046136e8565b611da2565b3480156107fe57600080fd5b506102e961080d3660046136e8565b611dc8565b34801561081e57600080fd5b506102d261082d366004613955565b611de6565b600061083d82611ecb565b92915050565b60008181526101976020908152604091829020825160808101845281546001600160a01b03168152600182015492810192909252600281015492820192909252600390910154606082018190526327b832b760e11b146108ea5760405162461bcd60e51b815260206004820152601260248201527f5472616465206973206e6f74204f70656e2e000000000000000000000000000060448201526064015b60405180910390fd5b805160408083015190516001600160a01b039092169181156108fc0291906000818181858888f19350505050158015610927573d6000803e3d6000fd5b506101965460208201516040516323b872dd60e01b815230600482015233602482015260448101919091526001600160a01b03909116906323b872dd90606401600060405180830381600087803b15801561098157600080fd5b505af1158015610995573d6000803e3d6000fd5b50505060008381526101976020908152604082207f45786563757465640000000000000000000000000000000000000000000000006003909101558301517f9ddc6ae76f9b6ff81561f8909025a8bcc58c06d2eb33ff0dfb8c5771532598149250849190610a0290611d0c565b8460200151604051610a179493929190613b35565b60405180910390a15050565b606060658054610a3290613b8b565b80601f0160208091040260200160405190810160405280929190818152602001828054610a5e90613b8b565b8015610aab5780601f10610a8057610100808354040283529160200191610aab565b820191906000526020600020905b815481529060010190602001808311610a8e57829003601f168201915b5050505050905090565b6000818152606760205260408120546001600160a01b0316610b3f5760405162461bcd60e51b815260206004820152602c60248201527f4552433732313a20617070726f76656420717565727920666f72206e6f6e657860448201527f697374656e7420746f6b656e000000000000000000000000000000000000000060648201526084016108e1565b506000908152606960205260409020546001600160a01b031690565b6000610b66826116f6565b9050806001600160a01b0316836001600160a01b03161415610bf05760405162461bcd60e51b815260206004820152602160248201527f4552433732313a20617070726f76616c20746f2063757272656e74206f776e6560448201527f720000000000000000000000000000000000000000000000000000000000000060648201526084016108e1565b336001600160a01b0382161480610c0c5750610c0c81336107a4565b610c7e5760405162461bcd60e51b815260206004820152603860248201527f4552433732313a20617070726f76652063616c6c6572206973206e6f74206f7760448201527f6e6572206e6f7220617070726f76656420666f7220616c6c000000000000000060648201526084016108e1565b610c888383611f09565b505050565b60008181526101976020908152604091829020825160808101845281546001600160a01b03168082526001830154938201939093526002820154938101939093526003015460608301523314610d4b5760405162461bcd60e51b815260206004820152602660248201527f54726164652063616e2062652063616e63656c6c6564206f6e6c79206279207060448201527f6f737465722e000000000000000000000000000000000000000000000000000060648201526084016108e1565b80606001516327b832b760e11b14610da55760405162461bcd60e51b815260206004820152601260248201527f5472616465206973206e6f74204f70656e2e000000000000000000000000000060448201526064016108e1565b61019654815160208301516040516323b872dd60e01b81523060048201526001600160a01b03928316602482015260448101919091529116906323b872dd90606401600060405180830381600087803b158015610e0157600080fd5b505af1158015610e15573d6000803e3d6000fd5b50505060008381526101976020908152604082207f43616e63656c6c656400000000000000000000000000000000000000000000006003909101558301517f9ddc6ae76f9b6ff81561f8909025a8bcc58c06d2eb33ff0dfb8c5771532598149250849190610e8290611d0c565b8460200151604051610a179493929190613bc6565b610196546040516323b872dd60e01b8152336004820152306024820152604481018490526001600160a01b03909116906323b872dd90606401600060405180830381600087803b158015610eea57600080fd5b505af1158015610efe573d6000803e3d6000fd5b505050506000610f0e6101925490565b60008181526101976020526040902080546001600160a01b0319163317815560018101859055600281018490556327b832b760e11b60039091015590507f9ddc6ae76f9b6ff81561f8909025a8bcc58c06d2eb33ff0dfb8c5771532598148183610f7786611d0c565b86604051610f889493929190613c0b565b60405180910390a1610c8861019280546001019055565b600061019384604051610fb29190613c50565b9081526040519081900360200190205490506000610fd1606485613c98565b9050610fdc826116f6565b6001600160a01b03166108fc610ff28387613cac565b6040518115909202916000818181858888f1935050505015801561101a573d6000803e3d6000fd5b5060fb546040516001600160a01b039091169082156108fc029083906000818181858888f19350505050158015611055573d6000803e3d6000fd5b507f3ff181e4ea012c2fefaf0d2707c9f5e45edde5d9f44485522bed98bca087716f8461108184611d0c565b84866040516110939493929190613cc3565b60405180910390a15050505050565b6110ac3382611f77565b61111e5760405162461bcd60e51b815260206004820152603160248201527f4552433732313a207472616e736665722063616c6c6572206973206e6f74206f60448201527f776e6572206e6f7220617070726f76656400000000000000000000000000000060648201526084016108e1565b610c8883838361207f565b60006111348361178c565b82106111a85760405162461bcd60e51b815260206004820152602b60248201527f455243373231456e756d657261626c653a206f776e657220696e646578206f7560448201527f74206f6620626f756e647300000000000000000000000000000000000000000060648201526084016108e1565b506001600160a01b03919091166000908152609760209081526040808320938352929052205490565b60006111e261019180546001019055565b6000610193836040516111f59190613c50565b90815260200160405180910390205411156112525760405162461bcd60e51b815260206004820152601460248201527f546f6b656e20616c72656164792065786973747300000000000000000000000060448201526064016108e1565b600061125e6101915490565b905061126a3382612257565b600081815261019860209081526040909120845161128a9286019061361c565b5061129581846123a5565b80610193846040516112a79190613c50565b908152604051908190036020019020556112c960fb546001600160a01b031690565b6040516001600160a01b039190911690600090662386f26fc100009082818181858883f19350505050158015611303573d6000803e3d6000fd5b5092915050565b306001600160a01b037f00000000000000000000000000000000000000000000000000000000000000001614156113a95760405162461bcd60e51b815260206004820152602c60248201527f46756e6374696f6e206d7573742062652063616c6c6564207468726f7567682060448201527f64656c656761746563616c6c000000000000000000000000000000000000000060648201526084016108e1565b7f00000000000000000000000000000000000000000000000000000000000000006001600160a01b03166114047f360894a13ba1a3210667c828492db98dca3e2076cc3735a920a3ca505d382bbc546001600160a01b031690565b6001600160a01b0316146114805760405162461bcd60e51b815260206004820152602c60248201527f46756e6374696f6e206d7573742062652063616c6c6564207468726f7567682060448201527f6163746976652070726f7879000000000000000000000000000000000000000060648201526084016108e1565b6114898161244e565b604080516000808252602082019092526114a5918391906124a8565b50565b610c8883838360405180602001604052806000815250611ba4565b306001600160a01b037f00000000000000000000000000000000000000000000000000000000000000001614156115625760405162461bcd60e51b815260206004820152602c60248201527f46756e6374696f6e206d7573742062652063616c6c6564207468726f7567682060448201527f64656c656761746563616c6c000000000000000000000000000000000000000060648201526084016108e1565b7f00000000000000000000000000000000000000000000000000000000000000006001600160a01b03166115bd7f360894a13ba1a3210667c828492db98dca3e2076cc3735a920a3ca505d382bbc546001600160a01b031690565b6001600160a01b0316146116395760405162461bcd60e51b815260206004820152602c60248201527f46756e6374696f6e206d7573742062652063616c6c6564207468726f7567682060448201527f6163746976652070726f7879000000000000000000000000000000000000000060648201526084016108e1565b6116428261244e565b61164e828260016124a8565b5050565b600061165d60995490565b82106116d15760405162461bcd60e51b815260206004820152602c60248201527f455243373231456e756d657261626c653a20676c6f62616c20696e646578206f60448201527f7574206f6620626f756e6473000000000000000000000000000000000000000060648201526084016108e1565b609982815481106116e4576116e4613cff565b90600052602060002001549050919050565b6000818152606760205260408120546001600160a01b03168061083d5760405162461bcd60e51b815260206004820152602960248201527f4552433732313a206f776e657220717565727920666f72206e6f6e657869737460448201527f656e7420746f6b656e000000000000000000000000000000000000000000000060648201526084016108e1565b606061083d82611d0c565b60006001600160a01b03821661180a5760405162461bcd60e51b815260206004820152602a60248201527f4552433732313a2062616c616e636520717565727920666f7220746865207a6560448201527f726f20616464726573730000000000000000000000000000000000000000000060648201526084016108e1565b506001600160a01b031660009081526068602052604090205490565b60fb546001600160a01b031633146118805760405162461bcd60e51b815260206004820181905260248201527f4f776e61626c653a2063616c6c6572206973206e6f7420746865206f776e657260448201526064016108e1565b61188a600061266c565b565b600054610100900460ff166118a75760005460ff16156118ab565b303b155b61191d5760405162461bcd60e51b815260206004820152602e60248201527f496e697469616c697a61626c653a20636f6e747261637420697320616c72656160448201527f647920696e697469616c697a656400000000000000000000000000000000000060648201526084016108e1565b600054610100900460ff1615801561193f576000805461ffff19166101011790555b6119b36040518060400160405280600781526020017f73776167746167000000000000000000000000000000000000000000000000008152506040518060400160405280600381526020017f53574700000000000000000000000000000000000000000000000000000000008152506126be565b6119bb612743565b6119c3612743565b6119cb6127c6565b61019680546001600160a01b0319163017905580156114a5576000805461ff001916905550565b606060668054610a3290613b8b565b61164e338383612841565b336001600160a01b0316611a3e61019384604051611a2a9190613c50565b9081526020016040518091039020546116f6565b6001600160a01b031614611a945760405162461bcd60e51b815260206004820152601a60248201527f4f6e6c7920746865206f776e65722063616e20646f207468697300000000000060448201526064016108e1565b8061019483604051611aa69190613c50565b90815260200160405180910390209080519060200190610c8892919061361c565b6000611ad4606484613c98565b9050611adf846116f6565b6001600160a01b03166108fc611af58386613cac565b6040518115909202916000818181858888f19350505050158015611b1d573d6000803e3d6000fd5b5060fb546040516001600160a01b039091169082156108fc029083906000818181858888f19350505050158015611b58573d6000803e3d6000fd5b507f3ff181e4ea012c2fefaf0d2707c9f5e45edde5d9f44485522bed98bca087716f83611b8486611d0c565b8685604051611b969493929190613cc3565b60405180910390a150505050565b611bae3383611f77565b611c205760405162461bcd60e51b815260206004820152603160248201527f4552433732313a207472616e736665722063616c6c6572206973206e6f74206f60448201527f776e6572206e6f7220617070726f76656400000000000000000000000000000060648201526084016108e1565b611c2c84848484612910565b50505050565b600061019382604051611c459190613c50565b9081526020016040518091039020549050919050565b606061019482604051611c6e9190613c50565b90815260200160405180910390208054611c8790613b8b565b80601f0160208091040260200160405190810160405280929190818152602001828054611cb390613b8b565b8015611d005780601f10611cd557610100808354040283529160200191611d00565b820191906000526020600020905b815481529060010190602001808311611ce357829003601f168201915b50505050509050919050565b606061083d82612999565b60fb546001600160a01b03163314611d715760405162461bcd60e51b815260206004820181905260248201527f4f776e61626c653a2063616c6c6572206973206e6f7420746865206f776e657260448201526064016108e1565b6000611d7d6101915490565b9050611d8e61019180546001019055565b611d988382612b49565b610c8881836123a5565b60606101946101986000848152602001908152602001600020604051611c6e9190613d15565b600081815261019860205260409020805460609190611c8790613b8b565b60fb546001600160a01b03163314611e405760405162461bcd60e51b815260206004820181905260248201527f4f776e61626c653a2063616c6c6572206973206e6f7420746865206f776e657260448201526064016108e1565b6001600160a01b038116611ebc5760405162461bcd60e51b815260206004820152602660248201527f4f776e61626c653a206e6577206f776e657220697320746865207a65726f206160448201527f646472657373000000000000000000000000000000000000000000000000000060648201526084016108e1565b6114a58161266c565b3b151590565b60006001600160e01b031982167f780e9d6300000000000000000000000000000000000000000000000000000000148061083d575061083d82612b63565b600081815260696020526040902080546001600160a01b0319166001600160a01b0384169081179091558190611f3e826116f6565b6001600160a01b03167f8c5be1e5ebec7d5bd14f71427d1e84f3dd0314c0f7b2291e5b200ac8c7c3b92560405160405180910390a45050565b6000818152606760205260408120546001600160a01b03166120015760405162461bcd60e51b815260206004820152602c60248201527f4552433732313a206f70657261746f7220717565727920666f72206e6f6e657860448201527f697374656e7420746f6b656e000000000000000000000000000000000000000060648201526084016108e1565b600061200c836116f6565b9050806001600160a01b0316846001600160a01b031614806120475750836001600160a01b031661203c84610ab5565b6001600160a01b0316145b8061207757506001600160a01b038082166000908152606a602090815260408083209388168352929052205460ff165b949350505050565b826001600160a01b0316612092826116f6565b6001600160a01b03161461210e5760405162461bcd60e51b815260206004820152602960248201527f4552433732313a207472616e73666572206f6620746f6b656e2074686174206960448201527f73206e6f74206f776e000000000000000000000000000000000000000000000060648201526084016108e1565b6001600160a01b0382166121895760405162461bcd60e51b8152602060048201526024808201527f4552433732313a207472616e7366657220746f20746865207a65726f2061646460448201527f726573730000000000000000000000000000000000000000000000000000000060648201526084016108e1565b612194838383612bfe565b61219f600082611f09565b6001600160a01b03831660009081526068602052604081208054600192906121c8908490613cac565b90915550506001600160a01b03821660009081526068602052604081208054600192906121f6908490613db1565b909155505060008181526067602052604080822080546001600160a01b0319166001600160a01b0386811691821790925591518493918716917fddf252ad1be2c89b69c2b068fc378daa952ba7f163c4a11628f55a4df523b3ef91a4505050565b6001600160a01b0382166122ad5760405162461bcd60e51b815260206004820181905260248201527f4552433732313a206d696e7420746f20746865207a65726f206164647265737360448201526064016108e1565b6000818152606760205260409020546001600160a01b0316156123125760405162461bcd60e51b815260206004820152601c60248201527f4552433732313a20746f6b656e20616c7265616479206d696e7465640000000060448201526064016108e1565b61231e60008383612bfe565b6001600160a01b0382166000908152606860205260408120805460019290612347908490613db1565b909155505060008181526067602052604080822080546001600160a01b0319166001600160a01b03861690811790915590518392907fddf252ad1be2c89b69c2b068fc378daa952ba7f163c4a11628f55a4df523b3ef908290a45050565b6000828152606760205260409020546001600160a01b031661242f5760405162461bcd60e51b815260206004820152602e60248201527f45524337323155524953746f726167653a2055524920736574206f66206e6f6e60448201527f6578697374656e7420746f6b656e00000000000000000000000000000000000060648201526084016108e1565b600082815260c9602090815260409091208251610c889284019061361c565b60fb546001600160a01b031633146114a55760405162461bcd60e51b815260206004820181905260248201527f4f776e61626c653a2063616c6c6572206973206e6f7420746865206f776e657260448201526064016108e1565b60006124db7f360894a13ba1a3210667c828492db98dca3e2076cc3735a920a3ca505d382bbc546001600160a01b031690565b90506124e684612c09565b6000835111806124f35750815b15612504576125028484612cbe565b505b7f4910fdfa16fed3260ed0e7147f7cc6da11a60208b5b9406d12a635614ffd9143805460ff1661266557805460ff191660011781556040516001600160a01b03831660248201526125b190869060440160408051601f198184030181529190526020810180517bffffffffffffffffffffffffffffffffffffffffffffffffffffffff167f3659cfe600000000000000000000000000000000000000000000000000000000179052612cbe565b50805460ff191681557f360894a13ba1a3210667c828492db98dca3e2076cc3735a920a3ca505d382bbc546001600160a01b0383811691161461265c5760405162461bcd60e51b815260206004820152602f60248201527f45524331393637557067726164653a207570677261646520627265616b73206660448201527f757274686572207570677261646573000000000000000000000000000000000060648201526084016108e1565b61266585612dc0565b5050505050565b60fb80546001600160a01b038381166001600160a01b0319831681179093556040519116919082907f8be0079c531659141344cd1fd0a4f28419497f9722a3daafe3b4186f6b6457e090600090a35050565b600054610100900460ff166127295760405162461bcd60e51b815260206004820152602b60248201527f496e697469616c697a61626c653a20636f6e7472616374206973206e6f74206960448201526a6e697469616c697a696e6760a81b60648201526084016108e1565b612731612e00565b612739612e00565b61164e8282612e6b565b600054610100900460ff166127ae5760405162461bcd60e51b815260206004820152602b60248201527f496e697469616c697a61626c653a20636f6e7472616374206973206e6f74206960448201526a6e697469616c697a696e6760a81b60648201526084016108e1565b6127b6612e00565b6127be612e00565b61188a612e00565b600054610100900460ff166128315760405162461bcd60e51b815260206004820152602b60248201527f496e697469616c697a61626c653a20636f6e7472616374206973206e6f74206960448201526a6e697469616c697a696e6760a81b60648201526084016108e1565b612839612e00565b61188a612efd565b816001600160a01b0316836001600160a01b031614156128a35760405162461bcd60e51b815260206004820152601960248201527f4552433732313a20617070726f766520746f2063616c6c65720000000000000060448201526064016108e1565b6001600160a01b038381166000818152606a6020908152604080832094871680845294825291829020805460ff191686151590811790915591519182527f17307eab39ab6107e8899845ad3d59bd9653f200f220920489ca2b5937696c31910160405180910390a3505050565b61291b84848461207f565b61292784848484612f71565b611c2c5760405162461bcd60e51b815260206004820152603260248201527f4552433732313a207472616e7366657220746f206e6f6e20455243373231526560448201527f63656976657220696d706c656d656e746572000000000000000000000000000060648201526084016108e1565b6000818152606760205260409020546060906001600160a01b0316612a265760405162461bcd60e51b815260206004820152603160248201527f45524337323155524953746f726167653a2055524920717565727920666f722060448201527f6e6f6e6578697374656e7420746f6b656e00000000000000000000000000000060648201526084016108e1565b600082815260c9602052604081208054612a3f90613b8b565b80601f0160208091040260200160405190810160405280929190818152602001828054612a6b90613b8b565b8015612ab85780601f10612a8d57610100808354040283529160200191612ab8565b820191906000526020600020905b815481529060010190602001808311612a9b57829003601f168201915b505050505090506000612afb60408051808201909152601881527f68747470733a2f2f646f6d61696e732e617661782e67612f0000000000000000602082015290565b9050805160001415612b0e575092915050565b815115612b40578082604051602001612b28929190613dc9565b60405160208183030381529060405292505050919050565b612077846130c5565b61164e8282604051806020016040528060008152506131e0565b60006001600160e01b031982167f80ac58cd000000000000000000000000000000000000000000000000000000001480612bc657506001600160e01b031982167f5b5e139f00000000000000000000000000000000000000000000000000000000145b8061083d57507f01ffc9a7000000000000000000000000000000000000000000000000000000006001600160e01b031983161461083d565b610c88838383613269565b803b612c7d5760405162461bcd60e51b815260206004820152602d60248201527f455243313936373a206e657720696d706c656d656e746174696f6e206973206e60448201527f6f74206120636f6e74726163740000000000000000000000000000000000000060648201526084016108e1565b7f360894a13ba1a3210667c828492db98dca3e2076cc3735a920a3ca505d382bbc80546001600160a01b0319166001600160a01b0392909216919091179055565b6060823b612d345760405162461bcd60e51b815260206004820152602660248201527f416464726573733a2064656c65676174652063616c6c20746f206e6f6e2d636f60448201527f6e7472616374000000000000000000000000000000000000000000000000000060648201526084016108e1565b600080846001600160a01b031684604051612d4f9190613c50565b600060405180830381855af49150503d8060008114612d8a576040519150601f19603f3d011682016040523d82523d6000602084013e612d8f565b606091505b5091509150612db78282604051806060016040528060278152602001613e9760279139613321565b95945050505050565b612dc981612c09565b6040516001600160a01b038216907fbc7cd75a20ee27fd9adebab32041f755214dbc6bffa90cc0225b39da2e5c2d3b90600090a250565b600054610100900460ff1661188a5760405162461bcd60e51b815260206004820152602b60248201527f496e697469616c697a61626c653a20636f6e7472616374206973206e6f74206960448201526a6e697469616c697a696e6760a81b60648201526084016108e1565b600054610100900460ff16612ed65760405162461bcd60e51b815260206004820152602b60248201527f496e697469616c697a61626c653a20636f6e7472616374206973206e6f74206960448201526a6e697469616c697a696e6760a81b60648201526084016108e1565b8151612ee990606590602085019061361c565b508051610c8890606690602084019061361c565b600054610100900460ff16612f685760405162461bcd60e51b815260206004820152602b60248201527f496e697469616c697a61626c653a20636f6e7472616374206973206e6f74206960448201526a6e697469616c697a696e6760a81b60648201526084016108e1565b61188a3361266c565b60006001600160a01b0384163b156130ba57604051630a85bd0160e11b81526001600160a01b0385169063150b7a0290612fb5903390899088908890600401613df8565b6020604051808303816000875af1925050508015612ff0575060408051601f3d908101601f19168201909252612fed91810190613e34565b60015b6130a0573d80801561301e576040519150601f19603f3d011682016040523d82523d6000602084013e613023565b606091505b5080516130985760405162461bcd60e51b815260206004820152603260248201527f4552433732313a207472616e7366657220746f206e6f6e20455243373231526560448201527f63656976657220696d706c656d656e746572000000000000000000000000000060648201526084016108e1565b805181602001fd5b6001600160e01b031916630a85bd0160e11b149050612077565b506001949350505050565b6000818152606760205260409020546060906001600160a01b03166131525760405162461bcd60e51b815260206004820152602f60248201527f4552433732314d657461646174613a2055524920717565727920666f72206e6f60448201527f6e6578697374656e7420746f6b656e000000000000000000000000000000000060648201526084016108e1565b600061318e60408051808201909152601881527f68747470733a2f2f646f6d61696e732e617661782e67612f0000000000000000602082015290565b905060008151116131ae57604051806020016040528060008152506131d9565b806131b88461335a565b6040516020016131c9929190613dc9565b6040516020818303038152906040525b9392505050565b6131ea8383612257565b6131f76000848484612f71565b610c885760405162461bcd60e51b815260206004820152603260248201527f4552433732313a207472616e7366657220746f206e6f6e20455243373231526560448201527f63656976657220696d706c656d656e746572000000000000000000000000000060648201526084016108e1565b6001600160a01b0383166132c4576132bf81609980546000838152609a60205260408120829055600182018355919091527f72a152ddfb8e864297c917af52ea6c1c68aead0fee1a62673fcc7e0c94979d000155565b6132e7565b816001600160a01b0316836001600160a01b0316146132e7576132e7838261348c565b6001600160a01b0382166132fe57610c8881613529565b826001600160a01b0316826001600160a01b031614610c8857610c8882826135d8565b606083156133305750816131d9565b8251156133405782518084602001fd5b8160405162461bcd60e51b81526004016108e19190613759565b60608161339a57505060408051808201909152600181527f3000000000000000000000000000000000000000000000000000000000000000602082015290565b8160005b81156133c457806133ae81613e51565b91506133bd9050600a83613c98565b915061339e565b60008167ffffffffffffffff8111156133df576133df6137d4565b6040519080825280601f01601f191660200182016040528015613409576020820181803683370190505b5090505b84156120775761341e600183613cac565b915061342b600a86613e6c565b613436906030613db1565b60f81b81838151811061344b5761344b613cff565b60200101907effffffffffffffffffffffffffffffffffffffffffffffffffffffffffffff1916908160001a905350613485600a86613c98565b945061340d565b600060016134998461178c565b6134a39190613cac565b6000838152609860205260409020549091508082146134f6576001600160a01b03841660009081526097602090815260408083208584528252808320548484528184208190558352609890915290208190555b5060009182526098602090815260408084208490556001600160a01b039094168352609781528383209183525290812055565b60995460009061353b90600190613cac565b6000838152609a60205260408120546099805493945090928490811061356357613563613cff565b90600052602060002001549050806099838154811061358457613584613cff565b6000918252602080832090910192909255828152609a909152604080822084905585825281205560998054806135bc576135bc613e80565b6001900381819060005260206000200160009055905550505050565b60006135e38361178c565b6001600160a01b039093166000908152609760209081526040808320868452825280832085905593825260989052919091209190915550565b82805461362890613b8b565b90600052602060002090601f01602090048101928261364a5760008555613690565b82601f1061366357805160ff1916838001178555613690565b82800160010185558215613690579182015b82811115613690578251825591602001919060010190613675565b5061369c9291506136a0565b5090565b5b8082111561369c57600081556001016136a1565b6001600160e01b0319811681146114a557600080fd5b6000602082840312156136dd57600080fd5b81356131d9816136b5565b6000602082840312156136fa57600080fd5b5035919050565b60005b8381101561371c578181015183820152602001613704565b83811115611c2c5750506000910152565b60008151808452613745816020860160208601613701565b601f01601f19169290920160200192915050565b6020815260006131d9602083018461372d565b80356001600160a01b038116811461378357600080fd5b919050565b6000806040838503121561379b57600080fd5b6137a48361376c565b946020939093013593505050565b600080604083850312156137c557600080fd5b50508035926020909101359150565b634e487b7160e01b600052604160045260246000fd5b600082601f8301126137fb57600080fd5b813567ffffffffffffffff80821115613816576138166137d4565b604051601f8301601f19908116603f0116810190828211818310171561383e5761383e6137d4565b8160405283815286602085880101111561385757600080fd5b836020870160208301376000602085830101528094505050505092915050565b60008060006060848603121561388c57600080fd5b833567ffffffffffffffff808211156138a457600080fd5b6138b0878388016137ea565b94506020860135935060408601359150808211156138cd57600080fd5b506138da868287016137ea565b9150509250925092565b6000806000606084860312156138f957600080fd5b6139028461376c565b92506139106020850161376c565b9150604084013590509250925092565b60006020828403121561393257600080fd5b813567ffffffffffffffff81111561394957600080fd5b612077848285016137ea565b60006020828403121561396757600080fd5b6131d98261376c565b6000806040838503121561398357600080fd5b61398c8361376c565b9150602083013567ffffffffffffffff8111156139a857600080fd5b6139b4858286016137ea565b9150509250929050565b600080604083850312156139d157600080fd5b6139da8361376c565b9150602083013580151581146139ef57600080fd5b809150509250929050565b60008060408385031215613a0d57600080fd5b823567ffffffffffffffff80821115613a2557600080fd5b613a31868387016137ea565b93506020850135915080821115613a4757600080fd5b506139b4858286016137ea565b600080600060608486031215613a6957600080fd5b8335925060208401359150604084013567ffffffffffffffff811115613a8e57600080fd5b6138da868287016137ea565b60008060008060808587031215613ab057600080fd5b613ab98561376c565b9350613ac76020860161376c565b925060408501359150606085013567ffffffffffffffff811115613aea57600080fd5b613af6878288016137ea565b91505092959194509250565b60008060408385031215613b1557600080fd5b613b1e8361376c565b9150613b2c6020840161376c565b90509250929050565b8481527f4578656375746564000000000000000000000000000000000000000000000000602082015283604082015260a060608201526000613b7a60a083018561372d565b905082608083015295945050505050565b600181811c90821680613b9f57607f821691505b60208210811415613bc057634e487b7160e01b600052602260045260246000fd5b50919050565b8481527f43616e63656c6c65640000000000000000000000000000000000000000000000602082015283604082015260a060608201526000613b7a60a083018561372d565b8481527f4f70656e65640000000000000000000000000000000000000000000000000000602082015283604082015260a060608201526000613b7a60a083018561372d565b60008251613c62818460208701613701565b9190910192915050565b634e487b7160e01b600052601260045260246000fd5b634e487b7160e01b600052601160045260246000fd5b600082613ca757613ca7613c6c565b500490565b600082821015613cbe57613cbe613c82565b500390565b848152608060208201526000613cdc608083018661372d565b8460408401528281036060840152613cf4818561372d565b979650505050505050565b634e487b7160e01b600052603260045260246000fd5b600080835481600182811c915080831680613d3157607f831692505b6020808410821415613d5157634e487b7160e01b86526022600452602486fd5b818015613d655760018114613d7657613da3565b60ff19861689528489019650613da3565b60008a81526020902060005b86811015613d9b5781548b820152908501908301613d82565b505084890196505b509498975050505050505050565b60008219821115613dc457613dc4613c82565b500190565b60008351613ddb818460208801613701565b835190830190613def818360208801613701565b01949350505050565b60006001600160a01b03808716835280861660208401525083604083015260806060830152613e2a608083018461372d565b9695505050505050565b600060208284031215613e4657600080fd5b81516131d9816136b5565b6000600019821415613e6557613e65613c82565b5060010190565b600082613e7b57613e7b613c6c565b500690565b634e487b7160e01b600052603160045260246000fdfe416464726573733a206c6f772d6c6576656c2064656c65676174652063616c6c206661696c6564a2646970667358221220548eecaaa31694c6b9217448f9d7632987296632f19b8e9b7a2bac42f2e4ecea64736f6c634300080b0033",
  "immutableReferences": {
    "641": [
      {
        "length": 32,
        "start": 4885
      },
      {
        "length": 32,
        "start": 5035
      },
      {
        "length": 32,
        "start": 5326
      },
      {
        "length": 32,
        "start": 5476
      }
    ]
  },
  "source": "// SPDX-License-Identifier: MIT\npragma solidity ^0.8.2;\n\nimport \"@openzeppelin/contracts-upgradeable/token/ERC721/ERC721Upgradeable.sol\";\nimport \"@openzeppelin/contracts-upgradeable/token/ERC721/extensions/ERC721EnumerableUpgradeable.sol\";\nimport \"@openzeppelin/contracts-upgradeable/token/ERC721/extensions/ERC721URIStorageUpgradeable.sol\";\nimport \"@openzeppelin/contracts-upgradeable/access/OwnableUpgradeable.sol\";\nimport \"@openzeppelin/contracts-upgradeable/proxy/utils/Initializable.sol\";\nimport \"@openzeppelin/contracts-upgradeable/proxy/utils/UUPSUpgradeable.sol\";\nimport \"@openzeppelin/contracts-upgradeable/utils/CountersUpgradeable.sol\";\nimport \"@openzeppelin/contracts-upgradeable/token/ERC721/IERC721Upgradeable.sol\";\n\ncontract Swagtag is Initializable, ERC721Upgradeable, ERC721EnumerableUpgradeable, ERC721URIStorageUpgradeable, OwnableUpgradeable, UUPSUpgradeable {\n    using CountersUpgradeable for CountersUpgradeable.Counter;\n\n    CountersUpgradeable.Counter private _tokenIdCounter;\n\n    CountersUpgradeable.Counter private _tradeCounter;\n    mapping(string => uint256) _names;\n    mapping(string => string) _addresses;\n\n    event Payment(uint256 price, string name, uint256 item, string message);\n\n    /// @custom:oz-upgrades-unsafe-allow constructor\n    constructor() initializer {}\n\n    function initialize() initializer public {\n        __ERC721_init(\"swagtag\", \"SWG\");\n        __ERC721Enumerable_init();\n        __ERC721URIStorage_init();\n        __Ownable_init();\n        itemToken = this;\n    }\n\n    function _baseURI() internal pure override returns (string memory) {\n        return \"https://domains.avax.ga/\";\n    }\n\n    function safeMint(address to, string memory uri) public onlyOwner {\n        uint256 tokenId = _tokenIdCounter.current();\n        _tokenIdCounter.increment();\n        _safeMint(to, tokenId);\n        _setTokenURI(tokenId, uri);\n    }\n\n    /**\n     * @dev pays a swagtag owner, emitting an event\n     * @param _item The id of an existing item\n     * @param _amount the wei amount\n     */\n    function pay(uint256 _item, uint256 _amount, string memory _memo) public payable virtual {\n        uint256 fee = _amount/100;\n        payable(ownerOf(_item)).transfer(_amount-fee);\n        payable(owner()).transfer(fee);\n        emit Payment(_amount, tokenURI(_item), _item, _memo);\n    }\n\n    /**\n     * @dev pays a swagtag owner, emitting an event\n     * @param _name The name of an existing item\n     * @param _amount the wei amount\n     */\n    function payName(string memory _name, uint256 _amount, string memory _memo) public payable virtual {\n        uint256 _item =  _names[_name];\n        uint256 fee = _amount/100;\n        payable(ownerOf(_item)).transfer(_amount-fee);\n        payable(owner()).transfer(fee);\n        emit Payment(_amount, tokenURI(_item), _item, _memo);\n    }\n\n    /**\n     * @dev mint a fresh swagtag\n     * @param _name the swagtag name\n     */\n    function mintToken(string memory _name)\n        public\n        payable\n        returns (uint256)\n    {\n        _tokenIdCounter.increment();\n        require( !(_names[_name]>0), \"Token already exists\" );\n        uint256 newItemId = _tokenIdCounter.current();\n        _mint(msg.sender, newItemId);\n        _id_to_name[newItemId] = _name;\n        _setTokenURI(newItemId, _name);\n        _names[_name] = newItemId;\n        payable(owner()).transfer(10000000000000000);\n        return newItemId;\n    }    \n\n    function _authorizeUpgrade(address newImplementation)\n        internal\n        onlyOwner\n        override\n    {}\n\n    // The following functions are overrides required by Solidity.\n\n    function _beforeTokenTransfer(address from, address to, uint256 tokenId)\n        internal\n        override(ERC721Upgradeable, ERC721EnumerableUpgradeable)\n    {\n        super._beforeTokenTransfer(from, to, tokenId);\n    }\n\n    function _burn(uint256 _tokenId)\n        internal\n        override(ERC721Upgradeable, ERC721URIStorageUpgradeable)\n    {\n        super._burn(_tokenId);\n        string memory _name = _id_to_name[_tokenId];\n        if (_names[_name] != 0) {\n            delete _id_to_name[_tokenId];\n            delete _names[_name];\n            delete _addresses[_name];\n            if(_id_to_trade[_tokenId]>0) delete _id_to_trade[_tokenId];\n        }\n    }\n\n    function tokenURI(uint256 tokenId)\n        public\n        view\n        override(ERC721Upgradeable, ERC721URIStorageUpgradeable)\n        returns (string memory)\n    {\n        return super.tokenURI(tokenId);\n    }\n\n    function supportsInterface(bytes4 interfaceId)\n        public\n        view\n        override(ERC721Upgradeable, ERC721EnumerableUpgradeable)\n        returns (bool)\n    {\n        return super.supportsInterface(interfaceId);\n    }\n\n    function getAddress(string memory _name)\n        public\n        view\n        returns(string memory)\n    {\n        return _addresses[_name];\n    }\n\n    function getId(string memory _name)\n        public\n        view\n        returns(uint256 id)\n    {\n        return _names[_name];\n    }\n\n    function getName(uint256 tokenId)\n        public\n        view\n        returns(string memory)\n    {\n        return tokenURI(tokenId);\n    }\n\n    function setAddress(string memory _name, string memory _address)\n        public\n    {\n        require(ownerOf(_names[_name]) == msg.sender, \"Only the owner can do this\");\n        _addresses[_name] = _address;\n    }\n\n\n    //MARKET \n\n    mapping(uint256 => uint256) _id_to_trade;\n    event TradeStatusChange(uint256 ad, bytes32 status, uint256 price, string name, uint256 item);\n\n    IERC721Upgradeable itemToken;\n\n    struct Trade {\n        address payable poster;\n        uint256 item;\n        uint256 price;\n        bytes32 status; // Open, Executed, Cancelled\n    }\n\n    mapping(uint256 => Trade) public trades;\n\n    /**\n     * @dev Returns the details for a trade.\n     * @param _trade The id for the trade.\n     */\n    function getTrade(uint256 _trade)\n        public\n        virtual\n        view\n        returns(address, uint256, uint256, bytes32)\n    {\n        Trade memory trade = trades[_trade];\n        return (trade.poster, trade.item, trade.price, trade.status);\n    }\n\n    /**\n     * @dev Returns the trade for a id\n     * @param _id The id of the domain\n     */\n    function getTradeForId(uint256 _id)\n        public\n        virtual\n        view\n        returns(address, uint256, uint256, bytes32)\n    {\n        uint256 _trade = _id_to_trade[_id];\n        Trade memory trade = trades[_trade];\n        return (trade.poster, trade.item, trade.price, trade.status);\n    }\n\n    /**\n     * @dev Opens a new trade. Puts _item in escrow.\n     * @param _item The id for the item to trade.\n     * @param _price The amount of currency for which to trade the item.\n     */\n    function openTrade(uint256 _item, uint256 _price)\n        public\n        payable\n        virtual\n    {\n        itemToken.transferFrom(msg.sender, address(this), _item);\n        uint256 current = _tradeCounter.current();\n        trades[current].poster = payable(msg.sender);\n        trades[current].item = _item;\n        trades[current].price = _price;\n        trades[current].status = \"Open\";\n        emit TradeStatusChange(current, \"Opened\", _price,tokenURI(_item), _item);\n        _tradeCounter.increment();\n\n    }\n\n    /**\n     * @dev Executes a trade. Must have approved this contract to transfer the\n     * amount of currency specified to the poster. Transfers ownership of the\n     * item to the filler.\n     * @param _trade The id of an existing trade\n     */\n    function executeTrade(uint256 _trade)\n        public\n        payable\n        virtual\n    {\n        Trade memory trade = trades[_trade];\n        require(trade.status == \"Open\", \"Trade is not Open.\");\n        trade.poster.transfer(trade.price);   //pays previous owner requested amount\n        //currencyToken.transferFrom(msg.sender, trade.poster, trade.price);\n        itemToken.transferFrom(address(this), msg.sender, trade.item);\n        trades[_trade].status = \"Executed\";\n        emit TradeStatusChange(_trade, \"Executed\", 0,tokenURI(trade.item), trade.item);\n    }\n\n    /**\n     * @dev Cancels a trade by the poster.\n     * @param _trade The trade to be cancelled.\n     */\n    function cancelTrade(uint256 _trade)\n        public\n        virtual\n    {\n        Trade memory trade = trades[_trade];\n        require(\n            msg.sender == trade.poster,\n            \"Trade can be cancelled only by poster.\"\n        );\n        require(trade.status == \"Open\", \"Trade is not Open.\");\n        itemToken.transferFrom(address(this), trade.poster, trade.item);\n        trades[_trade].status = \"Cancelled\";\n        emit TradeStatusChange(_trade, \"Cancelled\", 0,tokenURI(trade.item), trade.item);\n    }\n\n    mapping(uint256 => string) _id_to_name;\n\n    function getNameForId(uint256 _tokenId)\n        public\n        view\n        returns(string memory)\n    {\n        return _id_to_name[_tokenId];\n    }\n\n    function getAddressForId(uint256 _tokenId)\n        public\n        view\n        returns(string memory)\n    {\n        return _addresses[_id_to_name[_tokenId]];\n    }\n\n}",
  "sourcePath": "/config/workspace/swagtag-dapp-avax/Truffle-testnet/contracts/Swagtag.sol",
  "compiler": {
    "name": "solc",
    "version": "0.8.11+commit.d7f03943.Emscripten.clang"
  },
  "schemaVersion": "3.4.4",
  "updatedAt": "2022-01-21T17:04:50.140Z",
  "networkType": "ethereum",
  "devdoc": {
    "kind": "dev",
    "methods": {
      "approve(address,uint256)": {
        "details": "See {IERC721-approve}."
      },
      "balanceOf(address)": {
        "details": "See {IERC721-balanceOf}."
      },
      "cancelTrade(uint256)": {
        "details": "Cancels a trade by the poster.",
        "params": {
          "_trade": "The trade to be cancelled."
        }
      },
      "constructor": {
        "custom:oz-upgrades-unsafe-allow": "constructor"
      },
      "executeTrade(uint256)": {
        "details": "Executes a trade. Must have approved this contract to transfer the amount of currency specified to the poster. Transfers ownership of the item to the filler.",
        "params": {
          "_trade": "The id of an existing trade"
        }
      },
      "getApproved(uint256)": {
        "details": "See {IERC721-getApproved}."
      },
      "getTrade(uint256)": {
        "details": "Returns the details for a trade.",
        "params": {
          "_trade": "The id for the trade."
        }
      },
      "getTradeForId(uint256)": {
        "details": "Returns the trade for a id",
        "params": {
          "_id": "The id of the domain"
        }
      },
      "isApprovedForAll(address,address)": {
        "details": "See {IERC721-isApprovedForAll}."
      },
      "mintToken(string)": {
        "details": "mint a fresh swagtag",
        "params": {
          "_name": "the swagtag name"
        }
      },
      "name()": {
        "details": "See {IERC721Metadata-name}."
      },
      "openTrade(uint256,uint256)": {
        "details": "Opens a new trade. Puts _item in escrow.",
        "params": {
          "_item": "The id for the item to trade.",
          "_price": "The amount of currency for which to trade the item."
        }
      },
      "owner()": {
        "details": "Returns the address of the current owner."
      },
      "ownerOf(uint256)": {
        "details": "See {IERC721-ownerOf}."
      },
      "pay(uint256,uint256,string)": {
        "details": "pays a swagtag owner, emitting an event",
        "params": {
          "_amount": "the wei amount",
          "_item": "The id of an existing item"
        }
      },
      "payName(string,uint256,string)": {
        "details": "pays a swagtag owner, emitting an event",
        "params": {
          "_amount": "the wei amount",
          "_name": "The name of an existing item"
        }
      },
      "renounceOwnership()": {
        "details": "Leaves the contract without owner. It will not be possible to call `onlyOwner` functions anymore. Can only be called by the current owner. NOTE: Renouncing ownership will leave the contract without an owner, thereby removing any functionality that is only available to the owner."
      },
      "safeTransferFrom(address,address,uint256)": {
        "details": "See {IERC721-safeTransferFrom}."
      },
      "safeTransferFrom(address,address,uint256,bytes)": {
        "details": "See {IERC721-safeTransferFrom}."
      },
      "setApprovalForAll(address,bool)": {
        "details": "See {IERC721-setApprovalForAll}."
      },
      "symbol()": {
        "details": "See {IERC721Metadata-symbol}."
      },
      "tokenByIndex(uint256)": {
        "details": "See {IERC721Enumerable-tokenByIndex}."
      },
      "tokenOfOwnerByIndex(address,uint256)": {
        "details": "See {IERC721Enumerable-tokenOfOwnerByIndex}."
      },
      "totalSupply()": {
        "details": "See {IERC721Enumerable-totalSupply}."
      },
      "transferFrom(address,address,uint256)": {
        "details": "See {IERC721-transferFrom}."
      },
      "transferOwnership(address)": {
        "details": "Transfers ownership of the contract to a new account (`newOwner`). Can only be called by the current owner."
      },
      "upgradeTo(address)": {
        "details": "Upgrade the implementation of the proxy to `newImplementation`. Calls {_authorizeUpgrade}. Emits an {Upgraded} event."
      },
      "upgradeToAndCall(address,bytes)": {
        "details": "Upgrade the implementation of the proxy to `newImplementation`, and subsequently execute the function call encoded in `data`. Calls {_authorizeUpgrade}. Emits an {Upgraded} event."
      }
    },
    "version": 1
  },
  "userdoc": {
    "kind": "user",
    "methods": {},
    "version": 1
  }
}