{
  "contractName": "UDNS",
  "abi": [
    {
      "inputs": [],
      "stateMutability": "nonpayable",
      "type": "constructor"
    },
    {
      "anonymous": false,
      "inputs": [
        {
          "indexed": true,
          "internalType": "address",
          "name": "owner",
          "type": "address"
        },
        {
          "indexed": true,
          "internalType": "address",
          "name": "approved",
          "type": "address"
        },
        {
          "indexed": true,
          "internalType": "uint256",
          "name": "tokenId",
          "type": "uint256"
        }
      ],
      "name": "Approval",
      "type": "event"
    },
    {
      "anonymous": false,
      "inputs": [
        {
          "indexed": true,
          "internalType": "address",
          "name": "owner",
          "type": "address"
        },
        {
          "indexed": true,
          "internalType": "address",
          "name": "operator",
          "type": "address"
        },
        {
          "indexed": false,
          "internalType": "bool",
          "name": "approved",
          "type": "bool"
        }
      ],
      "name": "ApprovalForAll",
      "type": "event"
    },
    {
      "anonymous": false,
      "inputs": [
        {
          "indexed": true,
          "internalType": "address",
          "name": "previousOwner",
          "type": "address"
        },
        {
          "indexed": true,
          "internalType": "address",
          "name": "newOwner",
          "type": "address"
        }
      ],
      "name": "OwnershipTransferred",
      "type": "event"
    },
    {
      "anonymous": false,
      "inputs": [
        {
          "indexed": false,
          "internalType": "uint256",
          "name": "ad",
          "type": "uint256"
        },
        {
          "indexed": false,
          "internalType": "bytes32",
          "name": "status",
          "type": "bytes32"
        },
        {
          "indexed": false,
          "internalType": "uint256",
          "name": "price",
          "type": "uint256"
        },
        {
          "indexed": false,
          "internalType": "string",
          "name": "name",
          "type": "string"
        },
        {
          "indexed": false,
          "internalType": "uint256",
          "name": "item",
          "type": "uint256"
        }
      ],
      "name": "TradeStatusChange",
      "type": "event"
    },
    {
      "anonymous": false,
      "inputs": [
        {
          "indexed": true,
          "internalType": "address",
          "name": "from",
          "type": "address"
        },
        {
          "indexed": true,
          "internalType": "address",
          "name": "to",
          "type": "address"
        },
        {
          "indexed": true,
          "internalType": "uint256",
          "name": "tokenId",
          "type": "uint256"
        }
      ],
      "name": "Transfer",
      "type": "event"
    },
    {
      "inputs": [
        {
          "internalType": "address",
          "name": "to",
          "type": "address"
        },
        {
          "internalType": "uint256",
          "name": "tokenId",
          "type": "uint256"
        }
      ],
      "name": "approve",
      "outputs": [],
      "stateMutability": "nonpayable",
      "type": "function"
    },
    {
      "inputs": [
        {
          "internalType": "address",
          "name": "owner",
          "type": "address"
        }
      ],
      "name": "balanceOf",
      "outputs": [
        {
          "internalType": "uint256",
          "name": "",
          "type": "uint256"
        }
      ],
      "stateMutability": "view",
      "type": "function"
    },
    {
      "inputs": [
        {
          "internalType": "uint256",
          "name": "tokenId",
          "type": "uint256"
        }
      ],
      "name": "getApproved",
      "outputs": [
        {
          "internalType": "address",
          "name": "",
          "type": "address"
        }
      ],
      "stateMutability": "view",
      "type": "function"
    },
    {
      "inputs": [
        {
          "internalType": "address",
          "name": "owner",
          "type": "address"
        },
        {
          "internalType": "address",
          "name": "operator",
          "type": "address"
        }
      ],
      "name": "isApprovedForAll",
      "outputs": [
        {
          "internalType": "bool",
          "name": "",
          "type": "bool"
        }
      ],
      "stateMutability": "view",
      "type": "function"
    },
    {
      "inputs": [],
      "name": "name",
      "outputs": [
        {
          "internalType": "string",
          "name": "",
          "type": "string"
        }
      ],
      "stateMutability": "view",
      "type": "function"
    },
    {
      "inputs": [],
      "name": "owner",
      "outputs": [
        {
          "internalType": "address",
          "name": "",
          "type": "address"
        }
      ],
      "stateMutability": "view",
      "type": "function"
    },
    {
      "inputs": [
        {
          "internalType": "uint256",
          "name": "tokenId",
          "type": "uint256"
        }
      ],
      "name": "ownerOf",
      "outputs": [
        {
          "internalType": "address",
          "name": "",
          "type": "address"
        }
      ],
      "stateMutability": "view",
      "type": "function"
    },
    {
      "inputs": [],
      "name": "renounceOwnership",
      "outputs": [],
      "stateMutability": "nonpayable",
      "type": "function"
    },
    {
      "inputs": [
        {
          "internalType": "address",
          "name": "from",
          "type": "address"
        },
        {
          "internalType": "address",
          "name": "to",
          "type": "address"
        },
        {
          "internalType": "uint256",
          "name": "tokenId",
          "type": "uint256"
        }
      ],
      "name": "safeTransferFrom",
      "outputs": [],
      "stateMutability": "nonpayable",
      "type": "function"
    },
    {
      "inputs": [
        {
          "internalType": "address",
          "name": "from",
          "type": "address"
        },
        {
          "internalType": "address",
          "name": "to",
          "type": "address"
        },
        {
          "internalType": "uint256",
          "name": "tokenId",
          "type": "uint256"
        },
        {
          "internalType": "bytes",
          "name": "_data",
          "type": "bytes"
        }
      ],
      "name": "safeTransferFrom",
      "outputs": [],
      "stateMutability": "nonpayable",
      "type": "function"
    },
    {
      "inputs": [
        {
          "internalType": "address",
          "name": "operator",
          "type": "address"
        },
        {
          "internalType": "bool",
          "name": "approved",
          "type": "bool"
        }
      ],
      "name": "setApprovalForAll",
      "outputs": [],
      "stateMutability": "nonpayable",
      "type": "function"
    },
    {
      "inputs": [],
      "name": "symbol",
      "outputs": [
        {
          "internalType": "string",
          "name": "",
          "type": "string"
        }
      ],
      "stateMutability": "view",
      "type": "function"
    },
    {
      "inputs": [
        {
          "internalType": "uint256",
          "name": "index",
          "type": "uint256"
        }
      ],
      "name": "tokenByIndex",
      "outputs": [
        {
          "internalType": "uint256",
          "name": "",
          "type": "uint256"
        }
      ],
      "stateMutability": "view",
      "type": "function"
    },
    {
      "inputs": [
        {
          "internalType": "address",
          "name": "owner",
          "type": "address"
        },
        {
          "internalType": "uint256",
          "name": "index",
          "type": "uint256"
        }
      ],
      "name": "tokenOfOwnerByIndex",
      "outputs": [
        {
          "internalType": "uint256",
          "name": "",
          "type": "uint256"
        }
      ],
      "stateMutability": "view",
      "type": "function"
    },
    {
      "inputs": [],
      "name": "totalSupply",
      "outputs": [
        {
          "internalType": "uint256",
          "name": "",
          "type": "uint256"
        }
      ],
      "stateMutability": "view",
      "type": "function"
    },
    {
      "inputs": [
        {
          "internalType": "uint256",
          "name": "",
          "type": "uint256"
        }
      ],
      "name": "trades",
      "outputs": [
        {
          "internalType": "address payable",
          "name": "poster",
          "type": "address"
        },
        {
          "internalType": "uint256",
          "name": "item",
          "type": "uint256"
        },
        {
          "internalType": "uint256",
          "name": "price",
          "type": "uint256"
        },
        {
          "internalType": "bytes32",
          "name": "status",
          "type": "bytes32"
        }
      ],
      "stateMutability": "view",
      "type": "function"
    },
    {
      "inputs": [
        {
          "internalType": "address",
          "name": "from",
          "type": "address"
        },
        {
          "internalType": "address",
          "name": "to",
          "type": "address"
        },
        {
          "internalType": "uint256",
          "name": "tokenId",
          "type": "uint256"
        }
      ],
      "name": "transferFrom",
      "outputs": [],
      "stateMutability": "nonpayable",
      "type": "function"
    },
    {
      "inputs": [
        {
          "internalType": "address",
          "name": "newOwner",
          "type": "address"
        }
      ],
      "name": "transferOwnership",
      "outputs": [],
      "stateMutability": "nonpayable",
      "type": "function"
    },
    {
      "inputs": [
        {
          "internalType": "uint256",
          "name": "_trade",
          "type": "uint256"
        }
      ],
      "name": "getTrade",
      "outputs": [
        {
          "internalType": "address",
          "name": "",
          "type": "address"
        },
        {
          "internalType": "uint256",
          "name": "",
          "type": "uint256"
        },
        {
          "internalType": "uint256",
          "name": "",
          "type": "uint256"
        },
        {
          "internalType": "bytes32",
          "name": "",
          "type": "bytes32"
        }
      ],
      "stateMutability": "view",
      "type": "function"
    },
    {
      "inputs": [
        {
          "internalType": "uint256",
          "name": "_id",
          "type": "uint256"
        }
      ],
      "name": "getTradeForId",
      "outputs": [
        {
          "internalType": "address",
          "name": "",
          "type": "address"
        },
        {
          "internalType": "uint256",
          "name": "",
          "type": "uint256"
        },
        {
          "internalType": "uint256",
          "name": "",
          "type": "uint256"
        },
        {
          "internalType": "bytes32",
          "name": "",
          "type": "bytes32"
        }
      ],
      "stateMutability": "view",
      "type": "function"
    },
    {
      "inputs": [
        {
          "internalType": "uint256",
          "name": "_item",
          "type": "uint256"
        },
        {
          "internalType": "uint256",
          "name": "_price",
          "type": "uint256"
        }
      ],
      "name": "openTrade",
      "outputs": [],
      "stateMutability": "nonpayable",
      "type": "function"
    },
    {
      "inputs": [
        {
          "internalType": "uint256",
          "name": "_trade",
          "type": "uint256"
        }
      ],
      "name": "executeTrade",
      "outputs": [],
      "stateMutability": "payable",
      "type": "function"
    },
    {
      "inputs": [
        {
          "internalType": "uint256",
          "name": "_trade",
          "type": "uint256"
        }
      ],
      "name": "cancelTrade",
      "outputs": [],
      "stateMutability": "nonpayable",
      "type": "function"
    },
    {
      "inputs": [
        {
          "internalType": "string",
          "name": "name",
          "type": "string"
        }
      ],
      "name": "mintToken",
      "outputs": [
        {
          "internalType": "uint256",
          "name": "",
          "type": "uint256"
        }
      ],
      "stateMutability": "payable",
      "type": "function"
    },
    {
      "inputs": [
        {
          "internalType": "uint256",
          "name": "tokenId",
          "type": "uint256"
        }
      ],
      "name": "tokenURI",
      "outputs": [
        {
          "internalType": "string",
          "name": "",
          "type": "string"
        }
      ],
      "stateMutability": "view",
      "type": "function"
    },
    {
      "inputs": [
        {
          "internalType": "bytes4",
          "name": "interfaceId",
          "type": "bytes4"
        }
      ],
      "name": "supportsInterface",
      "outputs": [
        {
          "internalType": "bool",
          "name": "",
          "type": "bool"
        }
      ],
      "stateMutability": "view",
      "type": "function"
    },
    {
      "inputs": [
        {
          "internalType": "address",
          "name": "to",
          "type": "address"
        },
        {
          "internalType": "uint256",
          "name": "tokenId",
          "type": "uint256"
        }
      ],
      "name": "safeMint",
      "outputs": [],
      "stateMutability": "nonpayable",
      "type": "function"
    },
    {
      "inputs": [
        {
          "internalType": "string",
          "name": "_name",
          "type": "string"
        }
      ],
      "name": "getAddress",
      "outputs": [
        {
          "internalType": "string",
          "name": "",
          "type": "string"
        }
      ],
      "stateMutability": "view",
      "type": "function"
    },
    {
      "inputs": [
        {
          "internalType": "uint256",
          "name": "tokenId",
          "type": "uint256"
        }
      ],
      "name": "getName",
      "outputs": [
        {
          "internalType": "string",
          "name": "",
          "type": "string"
        }
      ],
      "stateMutability": "view",
      "type": "function"
    },
    {
      "inputs": [
        {
          "internalType": "string",
          "name": "_name",
          "type": "string"
        },
        {
          "internalType": "string",
          "name": "_address",
          "type": "string"
        }
      ],
      "name": "setAddress",
      "outputs": [],
      "stateMutability": "nonpayable",
      "type": "function"
    }
  ],
  "bytecode": "0x60806040523480156200001157600080fd5b506040518060400160405280600781526020017f73776167746167000000000000000000000000000000000000000000000000008152506040518060400160405280600381526020017f5357470000000000000000000000000000000000000000000000000000000000815250816000908051906020019062000096929190620001ef565b508060019080519060200190620000af929190620001ef565b505050620000d2620000c66200012160201b60201c565b6200012960201b60201c565b30601060006101000a81548173ffffffffffffffffffffffffffffffffffffffff021916908373ffffffffffffffffffffffffffffffffffffffff160217905550600060128190555062000304565b600033905090565b6000600b60009054906101000a900473ffffffffffffffffffffffffffffffffffffffff16905081600b60006101000a81548173ffffffffffffffffffffffffffffffffffffffff021916908373ffffffffffffffffffffffffffffffffffffffff1602179055508173ffffffffffffffffffffffffffffffffffffffff168173ffffffffffffffffffffffffffffffffffffffff167f8be0079c531659141344cd1fd0a4f28419497f9722a3daafe3b4186f6b6457e060405160405180910390a35050565b828054620001fd90620002ce565b90600052602060002090601f0160209004810192826200022157600085556200026d565b82601f106200023c57805160ff19168380011785556200026d565b828001600101855582156200026d579182015b828111156200026c5782518255916020019190600101906200024f565b5b5090506200027c919062000280565b5090565b5b808211156200029b57600081600090555060010162000281565b5090565b7f4e487b7100000000000000000000000000000000000000000000000000000000600052602260045260246000fd5b60006002820490506001821680620002e757607f821691505b60208210811415620002fe57620002fd6200029f565b5b50919050565b614d0780620003146000396000f3fe6080604052600436106101cd5760003560e01c80634f6ccce7116100f7578063a144819411610095578063bf40fac111610064578063bf40fac1146106bd578063c87b56dd146106fa578063e985e9c514610737578063f2fde38b14610774576101cd565b8063a144819414610619578063a22cb46514610642578063a22dee041461066b578063b88d4fde14610694576101cd565b806370a08231116100d157806370a082311461056f578063715018a6146105ac5780638da5cb5b146105c357806395d89b41146105ee576101cd565b80634f6ccce7146104b85780636352211e146104f55780636b8ff57414610532576101cd565b806318160ddd1161016f5780632f745c591161013e5780632f745c59146103e257806333eba49a1461041f5780633eb5a2151461044f57806342842e0e1461048f576101cd565b806318160ddd1461030e5780631e6c598e1461033957806323b872dd146103795780632db25e05146103a2576101cd565b8063081812fc116101ab578063081812fc14610256578063095ea7b31461029357806309ec6cc7146102bc5780630c493fba146102e5576101cd565b806301ffc9a7146101d257806302d2838b1461020f57806306fdde031461022b575b600080fd5b3480156101de57600080fd5b506101f960048036038101906101f49190613240565b61079d565b6040516102069190613288565b60405180910390f35b610229600480360381019061022491906132d9565b6107af565b005b34801561023757600080fd5b50610240610a36565b60405161024d919061339f565b60405180910390f35b34801561026257600080fd5b5061027d600480360381019061027891906132d9565b610ac8565b60405161028a9190613402565b60405180910390f35b34801561029f57600080fd5b506102ba60048036038101906102b59190613449565b610b4d565b005b3480156102c857600080fd5b506102e360048036038101906102de91906132d9565b610c65565b005b3480156102f157600080fd5b5061030c60048036038101906103079190613489565b610ef9565b005b34801561031a57600080fd5b506103236110e3565b60405161033091906134d8565b60405180910390f35b34801561034557600080fd5b50610360600480360381019061035b91906132d9565b6110f0565b604051610370949392919061352d565b60405180910390f35b34801561038557600080fd5b506103a0600480360381019061039b9190613572565b611140565b005b3480156103ae57600080fd5b506103c960048036038101906103c491906132d9565b6111a0565b6040516103d994939291906135c5565b60405180910390f35b3480156103ee57600080fd5b5061040960048036038101906104049190613449565b611260565b60405161041691906134d8565b60405180910390f35b6104396004803603810190610434919061373f565b611305565b60405161044691906134d8565b60405180910390f35b34801561045b57600080fd5b50610476600480360381019061047191906132d9565b611416565b60405161048694939291906135c5565b60405180910390f35b34801561049b57600080fd5b506104b660048036038101906104b19190613572565b6114ef565b005b3480156104c457600080fd5b506104df60048036038101906104da91906132d9565b61150f565b6040516104ec91906134d8565b60405180910390f35b34801561050157600080fd5b5061051c600480360381019061051791906132d9565b611580565b6040516105299190613402565b60405180910390f35b34801561053e57600080fd5b50610559600480360381019061055491906132d9565b611632565b604051610566919061339f565b60405180910390f35b34801561057b57600080fd5b5061059660048036038101906105919190613788565b611644565b6040516105a391906134d8565b60405180910390f35b3480156105b857600080fd5b506105c16116fc565b005b3480156105cf57600080fd5b506105d8611784565b6040516105e59190613402565b60405180910390f35b3480156105fa57600080fd5b506106036117ae565b604051610610919061339f565b60405180910390f35b34801561062557600080fd5b50610640600480360381019061063b9190613449565b611840565b005b34801561064e57600080fd5b50610669600480360381019061066491906137e1565b6118ca565b005b34801561067757600080fd5b50610692600480360381019061068d9190613821565b6118e0565b005b3480156106a057600080fd5b506106bb60048036038101906106b6919061393a565b6119ab565b005b3480156106c957600080fd5b506106e460048036038101906106df919061373f565b611a0d565b6040516106f1919061339f565b60405180910390f35b34801561070657600080fd5b50610721600480360381019061071c91906132d9565b611abd565b60405161072e919061339f565b60405180910390f35b34801561074357600080fd5b5061075e600480360381019061075991906139bd565b611acf565b60405161076b9190613288565b60405180910390f35b34801561078057600080fd5b5061079b60048036038101906107969190613788565b611b63565b005b60006107a882611c5b565b9050919050565b6107b93033611acf565b6107c9576107c83060016118ca565b5b6000601160008381526020019081526020016000206040518060800160405290816000820160009054906101000a900473ffffffffffffffffffffffffffffffffffffffff1673ffffffffffffffffffffffffffffffffffffffff1673ffffffffffffffffffffffffffffffffffffffff168152602001600182015481526020016002820154815260200160038201548152505090507f4f70656e000000000000000000000000000000000000000000000000000000008160600151146108c5576040517f08c379a00000000000000000000000000000000000000000000000000000000081526004016108bc90613a49565b60405180910390fd5b806000015173ffffffffffffffffffffffffffffffffffffffff166108fc82604001519081150290604051600060405180830381858888f19350505050158015610913573d6000803e3d6000fd5b50601060009054906101000a900473ffffffffffffffffffffffffffffffffffffffff1673ffffffffffffffffffffffffffffffffffffffff166323b872dd303384602001516040518463ffffffff1660e01b815260040161097793929190613a69565b600060405180830381600087803b15801561099157600080fd5b505af11580156109a5573d6000803e3d6000fd5b505050507f457865637574656400000000000000000000000000000000000000000000000060116000848152602001908152602001600020600301819055507f9ddc6ae76f9b6ff81561f8909025a8bcc58c06d2eb33ff0dfb8c577153259814826000610a158460200151611abd565b8460200151604051610a2a9493929190613b0b565b60405180910390a15050565b606060008054610a4590613b92565b80601f0160208091040260200160405190810160405280929190818152602001828054610a7190613b92565b8015610abe5780601f10610a9357610100808354040283529160200191610abe565b820191906000526020600020905b815481529060010190602001808311610aa157829003601f168201915b5050505050905090565b6000610ad382611cd5565b610b12576040517f08c379a0000000000000000000000000000000000000000000000000000000008152600401610b0990613c36565b60405180910390fd5b6004600083815260200190815260200160002060009054906101000a900473ffffffffffffffffffffffffffffffffffffffff169050919050565b6000610b5882611580565b90508073ffffffffffffffffffffffffffffffffffffffff168373ffffffffffffffffffffffffffffffffffffffff161415610bc9576040517f08c379a0000000000000000000000000000000000000000000000000000000008152600401610bc090613cc8565b60405180910390fd5b8073ffffffffffffffffffffffffffffffffffffffff16610be8611d41565b73ffffffffffffffffffffffffffffffffffffffff161480610c175750610c1681610c11611d41565b611acf565b5b610c56576040517f08c379a0000000000000000000000000000000000000000000000000000000008152600401610c4d90613d5a565b60405180910390fd5b610c608383611d49565b505050565b6000601160008381526020019081526020016000206040518060800160405290816000820160009054906101000a900473ffffffffffffffffffffffffffffffffffffffff1673ffffffffffffffffffffffffffffffffffffffff1673ffffffffffffffffffffffffffffffffffffffff16815260200160018201548152602001600282015481526020016003820154815250509050806000015173ffffffffffffffffffffffffffffffffffffffff163373ffffffffffffffffffffffffffffffffffffffff1614610d6d576040517f08c379a0000000000000000000000000000000000000000000000000000000008152600401610d6490613dec565b60405180910390fd5b7f4f70656e00000000000000000000000000000000000000000000000000000000816060015114610dd3576040517f08c379a0000000000000000000000000000000000000000000000000000000008152600401610dca90613a49565b60405180910390fd5b601060009054906101000a900473ffffffffffffffffffffffffffffffffffffffff1673ffffffffffffffffffffffffffffffffffffffff166323b872dd30836000015184602001516040518463ffffffff1660e01b8152600401610e3a93929190613e61565b600060405180830381600087803b158015610e5457600080fd5b505af1158015610e68573d6000803e3d6000fd5b505050507f43616e63656c6c6564000000000000000000000000000000000000000000000060116000848152602001908152602001600020600301819055507f9ddc6ae76f9b6ff81561f8909025a8bcc58c06d2eb33ff0dfb8c577153259814826000610ed88460200151611abd565b8460200151604051610eed9493929190613ebe565b60405180910390a15050565b610f033033611acf565b610f1357610f123060016118ca565b5b601060009054906101000a900473ffffffffffffffffffffffffffffffffffffffff1673ffffffffffffffffffffffffffffffffffffffff166323b872dd3330856040518463ffffffff1660e01b8152600401610f7293929190613a69565b600060405180830381600087803b158015610f8c57600080fd5b505af1158015610fa0573d6000803e3d6000fd5b505050503360116000601254815260200190815260200160002060000160006101000a81548173ffffffffffffffffffffffffffffffffffffffff021916908373ffffffffffffffffffffffffffffffffffffffff160217905550816011600060125481526020019081526020016000206001018190555080601160006012548152602001908152602001600020600201819055507f4f70656e00000000000000000000000000000000000000000000000000000000601160006012548152602001908152602001600020600301819055506001601260008282546110859190613f45565b925050819055507f9ddc6ae76f9b6ff81561f8909025a8bcc58c06d2eb33ff0dfb8c57715325981460016012546110bc9190613f9b565b826110c685611abd565b856040516110d79493929190613ff5565b60405180910390a15050565b6000600980549050905090565b60116020528060005260406000206000915090508060000160009054906101000a900473ffffffffffffffffffffffffffffffffffffffff16908060010154908060020154908060030154905084565b61115161114b611d41565b82611e02565b611190576040517f08c379a0000000000000000000000000000000000000000000000000000000008152600401611187906140bf565b60405180910390fd5b61119b838383611ee0565b505050565b6000806000806000601160008781526020019081526020016000206040518060800160405290816000820160009054906101000a900473ffffffffffffffffffffffffffffffffffffffff1673ffffffffffffffffffffffffffffffffffffffff1673ffffffffffffffffffffffffffffffffffffffff1681526020016001820154815260200160028201548152602001600382015481525050905080600001518160200151826040015183606001519450945094509450509193509193565b600061126b83611644565b82106112ac576040517f08c379a00000000000000000000000000000000000000000000000000000000081526004016112a390614151565b60405180910390fd5b600760008473ffffffffffffffffffffffffffffffffffffffff1673ffffffffffffffffffffffffffffffffffffffff168152602001908152602001600020600083815260200190815260200160002054905092915050565b6000611311600c61213c565b6000600d8360405161132391906141ad565b9081526020016040518091039020541115611373576040517f08c379a000000000000000000000000000000000000000000000000000000000815260040161136a90614210565b60405180910390fd5b600061137f600c612152565b905061138b3382612160565b611395818461232e565b80600d846040516113a691906141ad565b9081526020016040518091039020819055506113c0611784565b73ffffffffffffffffffffffffffffffffffffffff166108fc662386f26fc100009081150290604051600060405180830381858888f1935050505015801561140c573d6000803e3d6000fd5b5080915050919050565b6000806000806000600f60008781526020019081526020016000205490506000601160008381526020019081526020016000206040518060800160405290816000820160009054906101000a900473ffffffffffffffffffffffffffffffffffffffff1673ffffffffffffffffffffffffffffffffffffffff1673ffffffffffffffffffffffffffffffffffffffff168152602001600182015481526020016002820154815260200160038201548152505090508060000151816020015182604001518360600151955095509550955050509193509193565b61150a838383604051806020016040528060008152506119ab565b505050565b60006115196110e3565b821061155a576040517f08c379a0000000000000000000000000000000000000000000000000000000008152600401611551906142a2565b60405180910390fd5b6009828154811061156e5761156d6142c2565b5b90600052602060002001549050919050565b6000806002600084815260200190815260200160002060009054906101000a900473ffffffffffffffffffffffffffffffffffffffff169050600073ffffffffffffffffffffffffffffffffffffffff168173ffffffffffffffffffffffffffffffffffffffff161415611629576040517f08c379a000000000000000000000000000000000000000000000000000000000815260040161162090614363565b60405180910390fd5b80915050919050565b606061163d82611abd565b9050919050565b60008073ffffffffffffffffffffffffffffffffffffffff168273ffffffffffffffffffffffffffffffffffffffff1614156116b5576040517f08c379a00000000000000000000000000000000000000000000000000000000081526004016116ac906143f5565b60405180910390fd5b600360008373ffffffffffffffffffffffffffffffffffffffff1673ffffffffffffffffffffffffffffffffffffffff168152602001908152602001600020549050919050565b611704611d41565b73ffffffffffffffffffffffffffffffffffffffff16611722611784565b73ffffffffffffffffffffffffffffffffffffffff1614611778576040517f08c379a000000000000000000000000000000000000000000000000000000000815260040161176f90614461565b60405180910390fd5b61178260006123a2565b565b6000600b60009054906101000a900473ffffffffffffffffffffffffffffffffffffffff16905090565b6060600180546117bd90613b92565b80601f01602080910402602001604051908101604052809291908181526020018280546117e990613b92565b80156118365780601f1061180b57610100808354040283529160200191611836565b820191906000526020600020905b81548152906001019060200180831161181957829003601f168201915b5050505050905090565b611848611d41565b73ffffffffffffffffffffffffffffffffffffffff16611866611784565b73ffffffffffffffffffffffffffffffffffffffff16146118bc576040517f08c379a00000000000000000000000000000000000000000000000000000000081526004016118b390614461565b60405180910390fd5b6118c68282612468565b5050565b6118dc6118d5611d41565b8383612486565b5050565b3373ffffffffffffffffffffffffffffffffffffffff1661191e600d8460405161190a91906141ad565b908152602001604051809103902054611580565b73ffffffffffffffffffffffffffffffffffffffff1614611974576040517f08c379a000000000000000000000000000000000000000000000000000000000815260040161196b906144cd565b60405180910390fd5b80600e8360405161198591906141ad565b908152602001604051809103902090805190602001906119a6929190613131565b505050565b6119bc6119b6611d41565b83611e02565b6119fb576040517f08c379a00000000000000000000000000000000000000000000000000000000081526004016119f2906140bf565b60405180910390fd5b611a07848484846125f3565b50505050565b6060600e82604051611a1f91906141ad565b90815260200160405180910390208054611a3890613b92565b80601f0160208091040260200160405190810160405280929190818152602001828054611a6490613b92565b8015611ab15780601f10611a8657610100808354040283529160200191611ab1565b820191906000526020600020905b815481529060010190602001808311611a9457829003601f168201915b50505050509050919050565b6060611ac88261264f565b9050919050565b6000600560008473ffffffffffffffffffffffffffffffffffffffff1673ffffffffffffffffffffffffffffffffffffffff16815260200190815260200160002060008373ffffffffffffffffffffffffffffffffffffffff1673ffffffffffffffffffffffffffffffffffffffff16815260200190815260200160002060009054906101000a900460ff16905092915050565b611b6b611d41565b73ffffffffffffffffffffffffffffffffffffffff16611b89611784565b73ffffffffffffffffffffffffffffffffffffffff1614611bdf576040517f08c379a0000000000000000000000000000000000000000000000000000000008152600401611bd690614461565b60405180910390fd5b600073ffffffffffffffffffffffffffffffffffffffff168173ffffffffffffffffffffffffffffffffffffffff161415611c4f576040517f08c379a0000000000000000000000000000000000000000000000000000000008152600401611c469061455f565b60405180910390fd5b611c58816123a2565b50565b60007f780e9d63000000000000000000000000000000000000000000000000000000007bffffffffffffffffffffffffffffffffffffffffffffffffffffffff1916827bffffffffffffffffffffffffffffffffffffffffffffffffffffffff19161480611cce5750611ccd826127a1565b5b9050919050565b60008073ffffffffffffffffffffffffffffffffffffffff166002600084815260200190815260200160002060009054906101000a900473ffffffffffffffffffffffffffffffffffffffff1673ffffffffffffffffffffffffffffffffffffffff1614159050919050565b600033905090565b816004600083815260200190815260200160002060006101000a81548173ffffffffffffffffffffffffffffffffffffffff021916908373ffffffffffffffffffffffffffffffffffffffff160217905550808273ffffffffffffffffffffffffffffffffffffffff16611dbc83611580565b73ffffffffffffffffffffffffffffffffffffffff167f8c5be1e5ebec7d5bd14f71427d1e84f3dd0314c0f7b2291e5b200ac8c7c3b92560405160405180910390a45050565b6000611e0d82611cd5565b611e4c576040517f08c379a0000000000000000000000000000000000000000000000000000000008152600401611e43906145f1565b60405180910390fd5b6000611e5783611580565b90508073ffffffffffffffffffffffffffffffffffffffff168473ffffffffffffffffffffffffffffffffffffffff161480611ec657508373ffffffffffffffffffffffffffffffffffffffff16611eae84610ac8565b73ffffffffffffffffffffffffffffffffffffffff16145b80611ed75750611ed68185611acf565b5b91505092915050565b8273ffffffffffffffffffffffffffffffffffffffff16611f0082611580565b73ffffffffffffffffffffffffffffffffffffffff1614611f56576040517f08c379a0000000000000000000000000000000000000000000000000000000008152600401611f4d90614683565b60405180910390fd5b600073ffffffffffffffffffffffffffffffffffffffff168273ffffffffffffffffffffffffffffffffffffffff161415611fc6576040517f08c379a0000000000000000000000000000000000000000000000000000000008152600401611fbd90614715565b60405180910390fd5b611fd1838383612883565b611fdc600082611d49565b6001600360008573ffffffffffffffffffffffffffffffffffffffff1673ffffffffffffffffffffffffffffffffffffffff168152602001908152602001600020600082825461202c9190613f9b565b925050819055506001600360008473ffffffffffffffffffffffffffffffffffffffff1673ffffffffffffffffffffffffffffffffffffffff16815260200190815260200160002060008282546120839190613f45565b92505081905550816002600083815260200190815260200160002060006101000a81548173ffffffffffffffffffffffffffffffffffffffff021916908373ffffffffffffffffffffffffffffffffffffffff160217905550808273ffffffffffffffffffffffffffffffffffffffff168473ffffffffffffffffffffffffffffffffffffffff167fddf252ad1be2c89b69c2b068fc378daa952ba7f163c4a11628f55a4df523b3ef60405160405180910390a4505050565b6001816000016000828254019250508190555050565b600081600001549050919050565b600073ffffffffffffffffffffffffffffffffffffffff168273ffffffffffffffffffffffffffffffffffffffff1614156121d0576040517f08c379a00000000000000000000000000000000000000000000000000000000081526004016121c790614781565b60405180910390fd5b6121d981611cd5565b15612219576040517f08c379a0000000000000000000000000000000000000000000000000000000008152600401612210906147ed565b60405180910390fd5b61222560008383612883565b6001600360008473ffffffffffffffffffffffffffffffffffffffff1673ffffffffffffffffffffffffffffffffffffffff16815260200190815260200160002060008282546122759190613f45565b92505081905550816002600083815260200190815260200160002060006101000a81548173ffffffffffffffffffffffffffffffffffffffff021916908373ffffffffffffffffffffffffffffffffffffffff160217905550808273ffffffffffffffffffffffffffffffffffffffff16600073ffffffffffffffffffffffffffffffffffffffff167fddf252ad1be2c89b69c2b068fc378daa952ba7f163c4a11628f55a4df523b3ef60405160405180910390a45050565b61233782611cd5565b612376576040517f08c379a000000000000000000000000000000000000000000000000000000000815260040161236d9061487f565b60405180910390fd5b8060066000848152602001908152602001600020908051906020019061239d929190613131565b505050565b6000600b60009054906101000a900473ffffffffffffffffffffffffffffffffffffffff16905081600b60006101000a81548173ffffffffffffffffffffffffffffffffffffffff021916908373ffffffffffffffffffffffffffffffffffffffff1602179055508173ffffffffffffffffffffffffffffffffffffffff168173ffffffffffffffffffffffffffffffffffffffff167f8be0079c531659141344cd1fd0a4f28419497f9722a3daafe3b4186f6b6457e060405160405180910390a35050565b612482828260405180602001604052806000815250612893565b5050565b8173ffffffffffffffffffffffffffffffffffffffff168373ffffffffffffffffffffffffffffffffffffffff1614156124f5576040517f08c379a00000000000000000000000000000000000000000000000000000000081526004016124ec906148eb565b60405180910390fd5b80600560008573ffffffffffffffffffffffffffffffffffffffff1673ffffffffffffffffffffffffffffffffffffffff16815260200190815260200160002060008473ffffffffffffffffffffffffffffffffffffffff1673ffffffffffffffffffffffffffffffffffffffff16815260200190815260200160002060006101000a81548160ff0219169083151502179055508173ffffffffffffffffffffffffffffffffffffffff168373ffffffffffffffffffffffffffffffffffffffff167f17307eab39ab6107e8899845ad3d59bd9653f200f220920489ca2b5937696c31836040516125e69190613288565b60405180910390a3505050565b6125fe848484611ee0565b61260a848484846128ee565b612649576040517f08c379a00000000000000000000000000000000000000000000000000000000081526004016126409061497d565b60405180910390fd5b50505050565b606061265a82611cd5565b612699576040517f08c379a000000000000000000000000000000000000000000000000000000000815260040161269090614a0f565b60405180910390fd5b60006006600084815260200190815260200160002080546126b990613b92565b80601f01602080910402602001604051908101604052809291908181526020018280546126e590613b92565b80156127325780601f1061270757610100808354040283529160200191612732565b820191906000526020600020905b81548152906001019060200180831161271557829003601f168201915b505050505090506000612743612a76565b905060008151141561275957819250505061279c565b60008251111561278e578082604051602001612776929190614a2f565b6040516020818303038152906040529250505061279c565b61279784612a8d565b925050505b919050565b60007f80ac58cd000000000000000000000000000000000000000000000000000000007bffffffffffffffffffffffffffffffffffffffffffffffffffffffff1916827bffffffffffffffffffffffffffffffffffffffffffffffffffffffff1916148061286c57507f5b5e139f000000000000000000000000000000000000000000000000000000007bffffffffffffffffffffffffffffffffffffffffffffffffffffffff1916827bffffffffffffffffffffffffffffffffffffffffffffffffffffffff1916145b8061287c575061287b82612b34565b5b9050919050565b61288e838383612b9e565b505050565b61289d8383612160565b6128aa60008484846128ee565b6128e9576040517f08c379a00000000000000000000000000000000000000000000000000000000081526004016128e09061497d565b60405180910390fd5b505050565b600061290f8473ffffffffffffffffffffffffffffffffffffffff16612cb2565b15612a69578373ffffffffffffffffffffffffffffffffffffffff1663150b7a02612938611d41565b8786866040518563ffffffff1660e01b815260040161295a9493929190614aa8565b6020604051808303816000875af192505050801561299657506040513d601f19601f820116820180604052508101906129939190614b09565b60015b612a19573d80600081146129c6576040519150601f19603f3d011682016040523d82523d6000602084013e6129cb565b606091505b50600081511415612a11576040517f08c379a0000000000000000000000000000000000000000000000000000000008152600401612a089061497d565b60405180910390fd5b805181602001fd5b63150b7a0260e01b7bffffffffffffffffffffffffffffffffffffffffffffffffffffffff1916817bffffffffffffffffffffffffffffffffffffffffffffffffffffffff191614915050612a6e565b600190505b949350505050565b606060405180602001604052806000815250905090565b6060612a9882611cd5565b612ad7576040517f08c379a0000000000000000000000000000000000000000000000000000000008152600401612ace90614ba8565b60405180910390fd5b6000612ae1612a76565b90506000815111612b015760405180602001604052806000815250612b2c565b80612b0b84612cc5565b604051602001612b1c929190614a2f565b6040516020818303038152906040525b915050919050565b60007f01ffc9a7000000000000000000000000000000000000000000000000000000007bffffffffffffffffffffffffffffffffffffffffffffffffffffffff1916827bffffffffffffffffffffffffffffffffffffffffffffffffffffffff1916149050919050565b612ba9838383612e26565b600073ffffffffffffffffffffffffffffffffffffffff168373ffffffffffffffffffffffffffffffffffffffff161415612bec57612be781612e2b565b612c2b565b8173ffffffffffffffffffffffffffffffffffffffff168373ffffffffffffffffffffffffffffffffffffffff1614612c2a57612c298382612e74565b5b5b600073ffffffffffffffffffffffffffffffffffffffff168273ffffffffffffffffffffffffffffffffffffffff161415612c6e57612c6981612fe1565b612cad565b8273ffffffffffffffffffffffffffffffffffffffff168273ffffffffffffffffffffffffffffffffffffffff1614612cac57612cab82826130b2565b5b5b505050565b600080823b905060008111915050919050565b60606000821415612d0d576040518060400160405280600181526020017f30000000000000000000000000000000000000000000000000000000000000008152509050612e21565b600082905060005b60008214612d3f578080612d2890614bc8565b915050600a82612d389190614c40565b9150612d15565b60008167ffffffffffffffff811115612d5b57612d5a613614565b5b6040519080825280601f01601f191660200182016040528015612d8d5781602001600182028036833780820191505090505b5090505b60008514612e1a57600182612da69190613f9b565b9150600a85612db59190614c71565b6030612dc19190613f45565b60f81b818381518110612dd757612dd66142c2565b5b60200101907effffffffffffffffffffffffffffffffffffffffffffffffffffffffffffff1916908160001a905350600a85612e139190614c40565b9450612d91565b8093505050505b919050565b505050565b600980549050600a600083815260200190815260200160002081905550600981908060018154018082558091505060019003906000526020600020016000909190919091505550565b60006001612e8184611644565b612e8b9190613f9b565b9050600060086000848152602001908152602001600020549050818114612f70576000600760008673ffffffffffffffffffffffffffffffffffffffff1673ffffffffffffffffffffffffffffffffffffffff168152602001908152602001600020600084815260200190815260200160002054905080600760008773ffffffffffffffffffffffffffffffffffffffff1673ffffffffffffffffffffffffffffffffffffffff168152602001908152602001600020600084815260200190815260200160002081905550816008600083815260200190815260200160002081905550505b6008600084815260200190815260200160002060009055600760008573ffffffffffffffffffffffffffffffffffffffff1673ffffffffffffffffffffffffffffffffffffffff16815260200190815260200160002060008381526020019081526020016000206000905550505050565b60006001600980549050612ff59190613f9b565b90506000600a6000848152602001908152602001600020549050600060098381548110613025576130246142c2565b5b906000526020600020015490508060098381548110613047576130466142c2565b5b906000526020600020018190555081600a600083815260200190815260200160002081905550600a600085815260200190815260200160002060009055600980548061309657613095614ca2565b5b6001900381819060005260206000200160009055905550505050565b60006130bd83611644565b905081600760008573ffffffffffffffffffffffffffffffffffffffff1673ffffffffffffffffffffffffffffffffffffffff168152602001908152602001600020600083815260200190815260200160002081905550806008600084815260200190815260200160002081905550505050565b82805461313d90613b92565b90600052602060002090601f01602090048101928261315f57600085556131a6565b82601f1061317857805160ff19168380011785556131a6565b828001600101855582156131a6579182015b828111156131a557825182559160200191906001019061318a565b5b5090506131b391906131b7565b5090565b5b808211156131d05760008160009055506001016131b8565b5090565b6000604051905090565b600080fd5b600080fd5b60007fffffffff0000000000000000000000000000000000000000000000000000000082169050919050565b61321d816131e8565b811461322857600080fd5b50565b60008135905061323a81613214565b92915050565b600060208284031215613256576132556131de565b5b60006132648482850161322b565b91505092915050565b60008115159050919050565b6132828161326d565b82525050565b600060208201905061329d6000830184613279565b92915050565b6000819050919050565b6132b6816132a3565b81146132c157600080fd5b50565b6000813590506132d3816132ad565b92915050565b6000602082840312156132ef576132ee6131de565b5b60006132fd848285016132c4565b91505092915050565b600081519050919050565b600082825260208201905092915050565b60005b83811015613340578082015181840152602081019050613325565b8381111561334f576000848401525b50505050565b6000601f19601f8301169050919050565b600061337182613306565b61337b8185613311565b935061338b818560208601613322565b61339481613355565b840191505092915050565b600060208201905081810360008301526133b98184613366565b905092915050565b600073ffffffffffffffffffffffffffffffffffffffff82169050919050565b60006133ec826133c1565b9050919050565b6133fc816133e1565b82525050565b600060208201905061341760008301846133f3565b92915050565b613426816133e1565b811461343157600080fd5b50565b6000813590506134438161341d565b92915050565b600080604083850312156134605761345f6131de565b5b600061346e85828601613434565b925050602061347f858286016132c4565b9150509250929050565b600080604083850312156134a05761349f6131de565b5b60006134ae858286016132c4565b92505060206134bf858286016132c4565b9150509250929050565b6134d2816132a3565b82525050565b60006020820190506134ed60008301846134c9565b92915050565b60006134fe826133c1565b9050919050565b61350e816134f3565b82525050565b6000819050919050565b61352781613514565b82525050565b60006080820190506135426000830187613505565b61354f60208301866134c9565b61355c60408301856134c9565b613569606083018461351e565b95945050505050565b60008060006060848603121561358b5761358a6131de565b5b600061359986828701613434565b93505060206135aa86828701613434565b92505060406135bb868287016132c4565b9150509250925092565b60006080820190506135da60008301876133f3565b6135e760208301866134c9565b6135f460408301856134c9565b613601606083018461351e565b95945050505050565b600080fd5b600080fd5b7f4e487b7100000000000000000000000000000000000000000000000000000000600052604160045260246000fd5b61364c82613355565b810181811067ffffffffffffffff8211171561366b5761366a613614565b5b80604052505050565b600061367e6131d4565b905061368a8282613643565b919050565b600067ffffffffffffffff8211156136aa576136a9613614565b5b6136b382613355565b9050602081019050919050565b82818337600083830152505050565b60006136e26136dd8461368f565b613674565b9050828152602081018484840111156136fe576136fd61360f565b5b6137098482856136c0565b509392505050565b600082601f8301126137265761372561360a565b5b81356137368482602086016136cf565b91505092915050565b600060208284031215613755576137546131de565b5b600082013567ffffffffffffffff811115613773576137726131e3565b5b61377f84828501613711565b91505092915050565b60006020828403121561379e5761379d6131de565b5b60006137ac84828501613434565b91505092915050565b6137be8161326d565b81146137c957600080fd5b50565b6000813590506137db816137b5565b92915050565b600080604083850312156137f8576137f76131de565b5b600061380685828601613434565b9250506020613817858286016137cc565b9150509250929050565b60008060408385031215613838576138376131de565b5b600083013567ffffffffffffffff811115613856576138556131e3565b5b61386285828601613711565b925050602083013567ffffffffffffffff811115613883576138826131e3565b5b61388f85828601613711565b9150509250929050565b600067ffffffffffffffff8211156138b4576138b3613614565b5b6138bd82613355565b9050602081019050919050565b60006138dd6138d884613899565b613674565b9050828152602081018484840111156138f9576138f861360f565b5b6139048482856136c0565b509392505050565b600082601f8301126139215761392061360a565b5b81356139318482602086016138ca565b91505092915050565b60008060008060808587031215613954576139536131de565b5b600061396287828801613434565b945050602061397387828801613434565b9350506040613984878288016132c4565b925050606085013567ffffffffffffffff8111156139a5576139a46131e3565b5b6139b18782880161390c565b91505092959194509250565b600080604083850312156139d4576139d36131de565b5b60006139e285828601613434565b92505060206139f385828601613434565b9150509250929050565b7f5472616465206973206e6f74204f70656e2e0000000000000000000000000000600082015250565b6000613a33601283613311565b9150613a3e826139fd565b602082019050919050565b60006020820190508181036000830152613a6281613a26565b9050919050565b6000606082019050613a7e60008301866133f3565b613a8b60208301856133f3565b613a9860408301846134c9565b949350505050565b7f4578656375746564000000000000000000000000000000000000000000000000815250565b6000819050919050565b6000819050919050565b6000613af5613af0613aeb84613ac6565b613ad0565b6132a3565b9050919050565b613b0581613ada565b82525050565b600060a082019050613b2060008301876134c9565b613b2c60208301613aa0565b613b396040830186613afc565b8181036060830152613b4b8185613366565b9050613b5a60808301846134c9565b95945050505050565b7f4e487b7100000000000000000000000000000000000000000000000000000000600052602260045260246000fd5b60006002820490506001821680613baa57607f821691505b60208210811415613bbe57613bbd613b63565b5b50919050565b7f4552433732313a20617070726f76656420717565727920666f72206e6f6e657860008201527f697374656e7420746f6b656e0000000000000000000000000000000000000000602082015250565b6000613c20602c83613311565b9150613c2b82613bc4565b604082019050919050565b60006020820190508181036000830152613c4f81613c13565b9050919050565b7f4552433732313a20617070726f76616c20746f2063757272656e74206f776e6560008201527f7200000000000000000000000000000000000000000000000000000000000000602082015250565b6000613cb2602183613311565b9150613cbd82613c56565b604082019050919050565b60006020820190508181036000830152613ce181613ca5565b9050919050565b7f4552433732313a20617070726f76652063616c6c6572206973206e6f74206f7760008201527f6e6572206e6f7220617070726f76656420666f7220616c6c0000000000000000602082015250565b6000613d44603883613311565b9150613d4f82613ce8565b604082019050919050565b60006020820190508181036000830152613d7381613d37565b9050919050565b7f54726164652063616e2062652063616e63656c6c6564206f6e6c79206279207060008201527f6f737465722e0000000000000000000000000000000000000000000000000000602082015250565b6000613dd6602683613311565b9150613de182613d7a565b604082019050919050565b60006020820190508181036000830152613e0581613dc9565b9050919050565b6000613e27613e22613e1d846133c1565b613ad0565b6133c1565b9050919050565b6000613e3982613e0c565b9050919050565b6000613e4b82613e2e565b9050919050565b613e5b81613e40565b82525050565b6000606082019050613e7660008301866133f3565b613e836020830185613e52565b613e9060408301846134c9565b949350505050565b7f43616e63656c6c65640000000000000000000000000000000000000000000000815250565b600060a082019050613ed360008301876134c9565b613edf60208301613e98565b613eec6040830186613afc565b8181036060830152613efe8185613366565b9050613f0d60808301846134c9565b95945050505050565b7f4e487b7100000000000000000000000000000000000000000000000000000000600052601160045260246000fd5b6000613f50826132a3565b9150613f5b836132a3565b9250827fffffffffffffffffffffffffffffffffffffffffffffffffffffffffffffffff03821115613f9057613f8f613f16565b5b828201905092915050565b6000613fa6826132a3565b9150613fb1836132a3565b925082821015613fc457613fc3613f16565b5b828203905092915050565b7f4f70656e00000000000000000000000000000000000000000000000000000000815250565b600060a08201905061400a60008301876134c9565b61401660208301613fcf565b61402360408301866134c9565b81810360608301526140358185613366565b905061404460808301846134c9565b95945050505050565b7f4552433732313a207472616e736665722063616c6c6572206973206e6f74206f60008201527f776e6572206e6f7220617070726f766564000000000000000000000000000000602082015250565b60006140a9603183613311565b91506140b48261404d565b604082019050919050565b600060208201905081810360008301526140d88161409c565b9050919050565b7f455243373231456e756d657261626c653a206f776e657220696e646578206f7560008201527f74206f6620626f756e6473000000000000000000000000000000000000000000602082015250565b600061413b602b83613311565b9150614146826140df565b604082019050919050565b6000602082019050818103600083015261416a8161412e565b9050919050565b600081905092915050565b600061418782613306565b6141918185614171565b93506141a1818560208601613322565b80840191505092915050565b60006141b9828461417c565b915081905092915050565b7f546f6b656e20616c726561647920657869737473000000000000000000000000600082015250565b60006141fa601483613311565b9150614205826141c4565b602082019050919050565b60006020820190508181036000830152614229816141ed565b9050919050565b7f455243373231456e756d657261626c653a20676c6f62616c20696e646578206f60008201527f7574206f6620626f756e64730000000000000000000000000000000000000000602082015250565b600061428c602c83613311565b915061429782614230565b604082019050919050565b600060208201905081810360008301526142bb8161427f565b9050919050565b7f4e487b7100000000000000000000000000000000000000000000000000000000600052603260045260246000fd5b7f4552433732313a206f776e657220717565727920666f72206e6f6e657869737460008201527f656e7420746f6b656e0000000000000000000000000000000000000000000000602082015250565b600061434d602983613311565b9150614358826142f1565b604082019050919050565b6000602082019050818103600083015261437c81614340565b9050919050565b7f4552433732313a2062616c616e636520717565727920666f7220746865207a6560008201527f726f206164647265737300000000000000000000000000000000000000000000602082015250565b60006143df602a83613311565b91506143ea82614383565b604082019050919050565b6000602082019050818103600083015261440e816143d2565b9050919050565b7f4f776e61626c653a2063616c6c6572206973206e6f7420746865206f776e6572600082015250565b600061444b602083613311565b915061445682614415565b602082019050919050565b6000602082019050818103600083015261447a8161443e565b9050919050565b7f4f6e6c7920746865206f776e65722063616e20646f2074686973000000000000600082015250565b60006144b7601a83613311565b91506144c282614481565b602082019050919050565b600060208201905081810360008301526144e6816144aa565b9050919050565b7f4f776e61626c653a206e6577206f776e657220697320746865207a65726f206160008201527f6464726573730000000000000000000000000000000000000000000000000000602082015250565b6000614549602683613311565b9150614554826144ed565b604082019050919050565b600060208201905081810360008301526145788161453c565b9050919050565b7f4552433732313a206f70657261746f7220717565727920666f72206e6f6e657860008201527f697374656e7420746f6b656e0000000000000000000000000000000000000000602082015250565b60006145db602c83613311565b91506145e68261457f565b604082019050919050565b6000602082019050818103600083015261460a816145ce565b9050919050565b7f4552433732313a207472616e73666572206f6620746f6b656e2074686174206960008201527f73206e6f74206f776e0000000000000000000000000000000000000000000000602082015250565b600061466d602983613311565b915061467882614611565b604082019050919050565b6000602082019050818103600083015261469c81614660565b9050919050565b7f4552433732313a207472616e7366657220746f20746865207a65726f2061646460008201527f7265737300000000000000000000000000000000000000000000000000000000602082015250565b60006146ff602483613311565b915061470a826146a3565b604082019050919050565b6000602082019050818103600083015261472e816146f2565b9050919050565b7f4552433732313a206d696e7420746f20746865207a65726f2061646472657373600082015250565b600061476b602083613311565b915061477682614735565b602082019050919050565b6000602082019050818103600083015261479a8161475e565b9050919050565b7f4552433732313a20746f6b656e20616c7265616479206d696e74656400000000600082015250565b60006147d7601c83613311565b91506147e2826147a1565b602082019050919050565b60006020820190508181036000830152614806816147ca565b9050919050565b7f45524337323155524953746f726167653a2055524920736574206f66206e6f6e60008201527f6578697374656e7420746f6b656e000000000000000000000000000000000000602082015250565b6000614869602e83613311565b91506148748261480d565b604082019050919050565b600060208201905081810360008301526148988161485c565b9050919050565b7f4552433732313a20617070726f766520746f2063616c6c657200000000000000600082015250565b60006148d5601983613311565b91506148e08261489f565b602082019050919050565b60006020820190508181036000830152614904816148c8565b9050919050565b7f4552433732313a207472616e7366657220746f206e6f6e20455243373231526560008201527f63656976657220696d706c656d656e7465720000000000000000000000000000602082015250565b6000614967603283613311565b91506149728261490b565b604082019050919050565b600060208201905081810360008301526149968161495a565b9050919050565b7f45524337323155524953746f726167653a2055524920717565727920666f722060008201527f6e6f6e6578697374656e7420746f6b656e000000000000000000000000000000602082015250565b60006149f9603183613311565b9150614a048261499d565b604082019050919050565b60006020820190508181036000830152614a28816149ec565b9050919050565b6000614a3b828561417c565b9150614a47828461417c565b91508190509392505050565b600081519050919050565b600082825260208201905092915050565b6000614a7a82614a53565b614a848185614a5e565b9350614a94818560208601613322565b614a9d81613355565b840191505092915050565b6000608082019050614abd60008301876133f3565b614aca60208301866133f3565b614ad760408301856134c9565b8181036060830152614ae98184614a6f565b905095945050505050565b600081519050614b0381613214565b92915050565b600060208284031215614b1f57614b1e6131de565b5b6000614b2d84828501614af4565b91505092915050565b7f4552433732314d657461646174613a2055524920717565727920666f72206e6f60008201527f6e6578697374656e7420746f6b656e0000000000000000000000000000000000602082015250565b6000614b92602f83613311565b9150614b9d82614b36565b604082019050919050565b60006020820190508181036000830152614bc181614b85565b9050919050565b6000614bd3826132a3565b91507fffffffffffffffffffffffffffffffffffffffffffffffffffffffffffffffff821415614c0657614c05613f16565b5b600182019050919050565b7f4e487b7100000000000000000000000000000000000000000000000000000000600052601260045260246000fd5b6000614c4b826132a3565b9150614c56836132a3565b925082614c6657614c65614c11565b5b828204905092915050565b6000614c7c826132a3565b9150614c87836132a3565b925082614c9757614c96614c11565b5b828206905092915050565b7f4e487b7100000000000000000000000000000000000000000000000000000000600052603160045260246000fdfea264697066735822122075171484b22e0a7f9e80296a4df215c8730a286539d2f98d2367f23b3565c31464736f6c634300080b0033",
  "immutableReferences": {},
  "source": "// SPDX-License-Identifier: MIT\npragma solidity ^0.8.0;\n\nimport \"@openzeppelin/contracts/token/ERC721/extensions/ERC721URIStorage.sol\";\nimport \"@openzeppelin/contracts/token/ERC721/extensions/ERC721Enumerable.sol\";\nimport \"@openzeppelin/contracts/utils/Counters.sol\";\nimport \"@openzeppelin/contracts/access/Ownable.sol\";\nimport \"@openzeppelin/contracts/token/ERC20/IERC20.sol\";\nimport \"@openzeppelin/contracts/token/ERC721/IERC721.sol\";\n\ncontract UDNS is ERC721URIStorage, ERC721Enumerable, Ownable {\n    using Counters for Counters.Counter;\n    Counters.Counter private _tokenIds;\n    mapping(string => uint256) _names;\n    mapping(string => string) _addresses;\n\n    mapping(uint256 => uint256) _id_to_trade;\n    //IERC20 currencyToken;\n    IERC721 itemToken;\n\n    constructor(/*address _currencyTokenAddress*/) ERC721(\"swagtag\", \"SWG\") {\n        //currencyToken = IERC20(_currencyTokenAddress);\n        itemToken = IERC721(address(this));\n        tradeCounter = 0;\n    }\n\n    event TradeStatusChange(uint256 ad, bytes32 status, uint256 price, string name, uint256 item);\n\n    struct Trade {\n        address payable poster;\n        uint256 item;\n        uint256 price;\n        bytes32 status; // Open, Executed, Cancelled\n    }\n\n    mapping(uint256 => Trade) public trades;\n\n    uint256 tradeCounter;\n\n    /**\n     * @dev Returns the details for a trade.\n     * @param _trade The id for the trade.\n     */\n    function getTrade(uint256 _trade)\n        public\n        virtual\n        view\n        returns(address, uint256, uint256, bytes32)\n    {\n        Trade memory trade = trades[_trade];\n        return (trade.poster, trade.item, trade.price, trade.status);\n    }\n\n    /**\n     * @dev Returns the details for a trade.\n     * @param _id The id of the domain\n     */\n    function getTradeForId(uint256 _id)\n        public\n        virtual\n        view\n        returns(address, uint256, uint256, bytes32)\n    {\n        uint256 _trade = _id_to_trade[_id];\n        Trade memory trade = trades[_trade];\n        return (trade.poster, trade.item, trade.price, trade.status);\n    }\n\n    /**\n     * @dev Opens a new trade. Puts _item in escrow.\n     * @param _item The id for the item to trade.\n     * @param _price The amount of currency for which to trade the item.\n     */\n    function openTrade(uint256 _item, uint256 _price)\n        public\n        virtual\n    {\n        if(!isApprovedForAll(address(this), msg.sender)) setApprovalForAll(address(this), true);\n        itemToken.transferFrom(msg.sender, address(this), _item);\n        trades[tradeCounter].poster = payable(msg.sender);\n        trades[tradeCounter].item = _item;\n        trades[tradeCounter].price = _price;\n        trades[tradeCounter].status = \"Open\";\n        tradeCounter += 1;\n        emit TradeStatusChange(tradeCounter - 1, \"Open\", _price, tokenURI(_item), _item);\n    }\n\n    /**\n     * @dev Executes a trade. Must have approved this contract to transfer the\n     * amount of currency specified to the poster. Transfers ownership of the\n     * item to the filler.\n     * @param _trade The id of an existing trade\n     */\n    function executeTrade(uint256 _trade)\n        public\n        payable\n        virtual\n    {\n        if(!isApprovedForAll(address(this), msg.sender)) setApprovalForAll(address(this), true);\n        Trade memory trade = trades[_trade];\n        require(trade.status == \"Open\", \"Trade is not Open.\");\n        trade.poster.transfer(trade.price);   //pays previous owner requested amount\n        //currencyToken.transferFrom(msg.sender, trade.poster, trade.price);\n        itemToken.transferFrom(address(this), msg.sender, trade.item);\n        trades[_trade].status = \"Executed\";\n        emit TradeStatusChange(_trade, \"Executed\", 0, tokenURI(trade.item), trade.item);\n    }\n\n    /**\n     * @dev Cancels a trade by the poster.\n     * @param _trade The trade to be cancelled.\n     */\n    function cancelTrade(uint256 _trade)\n        public\n        virtual\n    {\n        Trade memory trade = trades[_trade];\n        require(\n            msg.sender == trade.poster,\n            \"Trade can be cancelled only by poster.\"\n        );\n        require(trade.status == \"Open\", \"Trade is not Open.\");\n        itemToken.transferFrom(address(this), trade.poster, trade.item);\n        trades[_trade].status = \"Cancelled\";\n        emit TradeStatusChange(_trade, \"Cancelled\", 0, tokenURI(trade.item), trade.item);\n    }\n\n    function mintToken(string memory name)\n        public\n        payable\n        returns (uint256)\n    {\n        _tokenIds.increment();\n        require( !(_names[name]>0), \"Token already exists\" );\n        uint256 newItemId = _tokenIds.current();\n        _mint(msg.sender, newItemId);\n        _setTokenURI(newItemId, name);\n        _names[name] = newItemId;\n        payable(owner()).transfer(10000000000000000);\n\n        return newItemId;\n    }\n\n    function _beforeTokenTransfer(address from, address to, uint256 tokenId)\n        internal\n        override(ERC721, ERC721Enumerable)\n    {\n        super._beforeTokenTransfer(from, to, tokenId);\n    }\n\n\n    function _burn(uint256 tokenId) internal override(ERC721, ERC721URIStorage) {\n        super._burn(tokenId);\n        string memory name = tokenURI(tokenId);\n        if (_names[name] != 0) {\n            delete _names[name];\n            delete _addresses[name];\n        }\n    }\n\n    function tokenURI(uint256 tokenId)\n        public\n        view\n        override(ERC721, ERC721URIStorage)\n        returns (string memory)\n    {\n        return super.tokenURI(tokenId);\n    }\n\n    function supportsInterface(bytes4 interfaceId)\n        public\n        view\n        override(ERC721, ERC721Enumerable)\n        returns (bool)\n    {\n        return super.supportsInterface(interfaceId);\n    }\n\n    function safeMint(address to, uint256 tokenId) public onlyOwner {\n        _safeMint(to, tokenId);\n    }\n\n    function getAddress(string memory _name)\n        public\n        view\n        returns(string memory)\n    {\n        return _addresses[_name];\n    }\n\n    function getName(uint256 tokenId)\n        public\n        view\n        returns(string memory)\n    {\n        return tokenURI(tokenId);\n    }\n\n    function setAddress(string memory _name, string memory _address)\n        public\n    {\n        require(ownerOf(_names[_name]) == msg.sender, \"Only the owner can do this\");\n        _addresses[_name] = _address;\n    }\n\n}",
  "sourcePath": "/config/workspace/swagtag-dapp-avax/Truffle/contracts/uDNS.sol",
  "compiler": {
    "name": "solc",
    "version": "0.8.11+commit.d7f03943.Emscripten.clang"
  },
  "schemaVersion": "3.4.4",
  "updatedAt": "2022-01-12T15:52:55.969Z",
  "devdoc": {
    "kind": "dev",
    "methods": {
      "approve(address,uint256)": {
        "details": "See {IERC721-approve}."
      },
      "balanceOf(address)": {
        "details": "See {IERC721-balanceOf}."
      },
      "cancelTrade(uint256)": {
        "details": "Cancels a trade by the poster.",
        "params": {
          "_trade": "The trade to be cancelled."
        }
      },
      "executeTrade(uint256)": {
        "details": "Executes a trade. Must have approved this contract to transfer the amount of currency specified to the poster. Transfers ownership of the item to the filler.",
        "params": {
          "_trade": "The id of an existing trade"
        }
      },
      "getApproved(uint256)": {
        "details": "See {IERC721-getApproved}."
      },
      "getTrade(uint256)": {
        "details": "Returns the details for a trade.",
        "params": {
          "_trade": "The id for the trade."
        }
      },
      "getTradeForId(uint256)": {
        "details": "Returns the details for a trade.",
        "params": {
          "_id": "The id of the domain"
        }
      },
      "isApprovedForAll(address,address)": {
        "details": "See {IERC721-isApprovedForAll}."
      },
      "name()": {
        "details": "See {IERC721Metadata-name}."
      },
      "openTrade(uint256,uint256)": {
        "details": "Opens a new trade. Puts _item in escrow.",
        "params": {
          "_item": "The id for the item to trade.",
          "_price": "The amount of currency for which to trade the item."
        }
      },
      "owner()": {
        "details": "Returns the address of the current owner."
      },
      "ownerOf(uint256)": {
        "details": "See {IERC721-ownerOf}."
      },
      "renounceOwnership()": {
        "details": "Leaves the contract without owner. It will not be possible to call `onlyOwner` functions anymore. Can only be called by the current owner. NOTE: Renouncing ownership will leave the contract without an owner, thereby removing any functionality that is only available to the owner."
      },
      "safeTransferFrom(address,address,uint256)": {
        "details": "See {IERC721-safeTransferFrom}."
      },
      "safeTransferFrom(address,address,uint256,bytes)": {
        "details": "See {IERC721-safeTransferFrom}."
      },
      "setApprovalForAll(address,bool)": {
        "details": "See {IERC721-setApprovalForAll}."
      },
      "symbol()": {
        "details": "See {IERC721Metadata-symbol}."
      },
      "tokenByIndex(uint256)": {
        "details": "See {IERC721Enumerable-tokenByIndex}."
      },
      "tokenOfOwnerByIndex(address,uint256)": {
        "details": "See {IERC721Enumerable-tokenOfOwnerByIndex}."
      },
      "totalSupply()": {
        "details": "See {IERC721Enumerable-totalSupply}."
      },
      "transferFrom(address,address,uint256)": {
        "details": "See {IERC721-transferFrom}."
      },
      "transferOwnership(address)": {
        "details": "Transfers ownership of the contract to a new account (`newOwner`). Can only be called by the current owner."
      }
    },
    "version": 1
  },
  "userdoc": {
    "kind": "user",
    "methods": {},
    "version": 1
  }
}